:100000006F20C040000000006E190000721900004F
:1000100000000000000000000000000000000000E0
:1000200000000000000000000000000000000000D0
:100030000014000000000000DC23000000000000AD
:10004000DE230000E0230000E2230000E4230000A0
:100050005C150000E8230000EA230000EC23000008
:10006000EE230000F0230000F2230000F423000040
:10007000F6230000F8230000FA230000FC23000010
:10008000FE23000000240000022400002E0F0000C8
:1000900006240000D80F0000E60F0000000000005A
:1000A0003D432A876373C3029377F700BDEFADE545
:1000B000937606FF3D8ABA960CC34CC30CC74CC757
:1000C0004107E36BD7FE11E28280B306C3408A0684
:1000D0009702000096966780A6002307B700A30644
:1000E000B7002306B700A305B7002305B700A30494
:1000F000B7002304B700A303B7002303B700A3028C
:10010000B7002302B700A301B7002301B700A30083
:10011000B7002300B700828093F5F50F9396850012
:10012000D58D93960501D58D61B7939627009702DB
:10013000000096968682E78086FA9680C1171D8F0A
:100140003E96E374C3F8A5B7511126C022C206C477
:10015000828282441244A240310182802A86014573
:1001600093F6150091C2329585810606F5F98280D5
:1001700000000000634E050263C305042E86AA85B5
:100180007D5515C285466378B6006356C0000606E5
:100190008606E36CB6FE014563E4C500918D558D7E
:1001A00085820582F5FA82808682C93F2E85828209
:1001B0003305A04063D70500B305B040C1B7B30510
:1001C000B0408682653F3305A0408282868263C745
:1001D0000500634905005D372E858282B305B04076
:1001E000E35B05FE3305A040513F3305B0408282FA
:1001F00000000547A386E186B7070140094723AA07
:10020000E7408280EFF25FF481451305200CEF2078
:10021000702081451145EF20F01F25BFEFF2DFF27E
:10022000D537B71602409C4E3707014093E71700B9
:100230009CCE0326C7409307074013660604232677
:10024000C74003260740136606042320C740130651
:100250000004232AC7400326C7401366260023262E
:10026000C74003260740136626002320C7400947DE
:10027000D8CBDC4E37070010D98FDCCEB7770040E3
:1002800098431367470098C398431367270098C3A0
:100290008147739047307300501001A0EFF2DFEAFE
:1002A0009317C5003385A74093054006E135AA851D
:1002B0001305200CEF20607969BDEFF2FFE813050C
:1002C000000CEF20E0759386418A05472386E1867E
:1002D00098429387C18C131627003E96050708C2E3
:1002E0000D8B98C28843D84385649385045E3A9504
:1002F0009847DC473A953E9509858D352981938746
:1003000084BB1384018763E5A7002320040091B513
:100310009384B40C63F6A400930740061CC0C5BFC9
:10032000B307F540139517003E950E053E959305CE
:1003300040510A05A13508C0D9BFEFF2FFE003A77D
:100340000188894771116309F70A1387818583073B
:1003500007009384018889E723A0A18A85471CA30D
:100360001387C1881C436389A70808C32AC01305E3
:10037000600CEF20B01303A6C1809386C180138761
:10038000818982476303C5001CC388C21443754634
:10039000B386D740138741806373D60008C31043E8
:1003A000138781801384018931EA0C438546639663
:1003B000D50023AAF188238E018810C33DE6138758
:1003C000C1891423BDE283A641891306803EB3860A
:1003D000D740637CD604232004008040854614A3C4
:1003E00005476312E4043EC0313D824723A4818661
:1003F00023A2F18823A004001101A1BB8546E31EBE
:10040000D6FA1443DDFA83A641899305201CB386EE
:10041000D7409386E6FC63E5D5001440850614C0FA
:1004200023A0F18A59BF69F8D53B1440F1D603A542
:10043000018A1307C012898FE370F7FC05472382F6
:10044000E1869C4005476392E7041387818863999E
:10045000F6021C43B70600808D068507F58F63D62C
:100460000700FD1793E7C7FF85071CC30D678A07C1
:1004700013074714BA978843153523200400ADBFEE
:100480008D471CC313054006C5BFE5FB93878188D4
:10049000639DE60023A007006545093585451145A4
:1004A000EF20407785479CC0C9BF0D4798C313050F
:1004B0004006E5B783C64186938741861387C18787
:1004C00099E614432546B306D5406375D60008C3A4
:1004D000238007008280EFF23FC785451145EF205A
:1004E000406485451305200CEF20A063213B814526
:1004F0001305000CEF20E06289451305600CEF2026
:10050000406289450D45EF20C06137060000314744
:1005100081461306261F930580040D45EF00103811
:1005200023A401860D4523A00186EF2020781384A3
:10053000018809E5C13989471CC021B9232004007D
:10054000EDBFEFF27FC0EF20607F2A840D45EF20E2
:10055000E075B707002003A707109387071063040F
:10056000A70023AA818688C319E983A74187B30717
:10057000F44093B7270393C71700814429A8854700
:100580006310F50883A441878147B304944093B472
:10059000240393C414001387D186142393F6F60F13
:1005A00099C22300070083A6018813870188B9CB6D
:1005B0008947638CF60023ACD186A9311387018863
:1005C00089471CC385462382D186B5C883A7818706
:1005D00005462382C1861CC385466398D70285459C
:1005E0001145EF20206383A78188939627008D67AC
:1005F00093874714B697884355311387018831A0F4
:100600008147A5BF8947E382F6FC1C438544638686
:10061000970209476385E702A1E32285393B83A757
:1006200081866399970203A7418889679387F7704A
:100630003307E44063F0E702D5362285FD3993871E
:1006400001869843930630063307E44063F4E600DE
:1006500080C3A5312285B93DEDBC014582808280F1
:100660007D558280EFF25FAE1C417111CC81DC437D
:1006700093053100054682971101E1BCEFF2DFAC32
:100680007111930531004105EF20601901E5888162
:100690001101C1B47D55EDBFEFF21FAB2E85B285C0
:1006A000EF2040077DB413F7F50FC54763EDE70072
:1006B0008D679387072D0A073E9793F705700C43C4
:1006C000CD8F5CD5828093F6050C1306000CFD5788
:1006D000E399C6FE9306700CE3E5E6FE93F7F50397
:1006E0000D671307072B8A07BA979C430D671307FB
:1006F000072D8A07BA9793F505709C43D1B713F776
:10070000F50FC54763EDE7008D679387072D0A074F
:100710003E9793F705700C43CD8F1CD5828093F6DE
:10072000050C1306000CFD57E399C6FE9306700CEA
:10073000E3E5E6FE93F7F5030D671307072B8A073A
:10074000BA979C430D671307072D8A07BA9793F54D
:1007500005709C43D1B7EFF23F9F9307803E1CC5C5
:100760008D67938707321CC10CC9232205009305AE
:10077000600C2A840D3F9305500C2285493758544C
:100780001C546314F700FD575CD4FD571CD85CD88B
:100790006FF03F9CEFF25F9BB7450140938505806A
:1007A0001385C18D4D3F6FF0DF9AEFF2FF991C4525
:1007B0002A8481CB0D46AA85829723240400232610
:1007C000040022856FF0FF98EFF21F9831110A851F
:1007D00002C002C202C402C602C8EF10E01A1245EB
:1007E00051016FF01F971C4581CBEFF2FF95AA8551
:1007F0000D4682976FF0FF958280FD152E951C2186
:1008000099CB89477D5563E7B70086059387818338
:10081000BE958A2182808D477D55E3EDB7FE860522
:1008200093870184F5B79387F5FF0D47636EF70053
:10083000EFF29F9151113EC02A84AE847D3F7D57D7
:1008400082476314E50001A001A09204938444034D
:10085000A2949444138741833E97182385C69386B8
:100860008184BE969422084C3AC4B6853EC236C0F6
:10087000EF10A0748246084C0546B685EF10405331
:100880002247924793962700A296D4423146636945
:10089000D60A0D668A0613064634B2969442084C70
:1008A0008286A2979C2393150701C18199CF114697
:1008B000EF100055084C216783574504D98F231248
:1008C000F5048545EF10404DA5A80546EF104051B1
:1008D000D5B70546BA853EC0EF10805082471387D2
:1008E000C184BA97838707002285BE853EC0313711
:1008F00093150501084C0546C181EF10604E084C68
:10090000A166854503574504558F2312E504EF1072
:10091000A048984415C782470D47084CFD17FD5461
:100920006366F70093858184BE958421C204C180EB
:10093000A685EF108068084C0546A685EF10404755
:1009400031016FF01F810546BA8549B71E21858B9D
:10095000E5FB85BFEFF24FFF5C5D2A8491CF084D28
:100960008545EF108065084C85450546EF104044ED
:10097000084C8545EF104042228585456D3522851E
:100980008945553522858D45793D91452285613DC5
:100990006FF02FFCEFF24FFB91472E85B2856383FA
:1009A000F60263E5D70081CE6FF0AFFAA147638E00
:1009B000F600B147E39AF6FEEF102037F5B7EF10D7
:1009C000801DDDB7EF10C023C5B7EF10C02CE9BF05
:1009D000EFF28FF72E84611116A2B285228536C2FE
:1009E00032C0EF10E04A024692466E2299E6228516
:1009F000EF10004421016FF0CFF591476396F600A8
:100A00002285EF104044FDB7A14722856395F6008B
:100A1000EF100045C5B7EF100046E9BFEFF2CFF287
:100A2000130141FD9387F5FF36C03EC232C48D47A6
:100A30009386F5FF2A842E87FD5463E6D7009387BB
:100A40004183B6978423394681451305E1013AC6AF
:100A5000EFF00FE5FD5702C802CA231C0100324720
:100A60006393F40001A0FC860C4C85E4DC59C207BA
:100A7000C183A2462311F1028547FC82B14763EC92
:100A8000D702939726008D6693868637B6979C4348
:100A9000828791476394F4009C5DD1BFA147639422
:100AA000F400DC5DE9B7BC41D9B7231E0100A6867E
:100AB00070082285C535924722478A07A297D8C376
:100AC0000247FD57630FF7043A85EF10F0236316D2
:100AD000950C02458D649385041CEF10D006A24747
:100AE0000D47DD176368F7000245EF10D0578145C9
:100AF000EF20200302459385041CEF10700B9247F2
:100B0000518105893E9408A029A80A0722971C4311
:100B100089CB23200700A68670082285231E0100AA
:100B2000953D1301C1026FF0CFE2C147FC8641B78A
:100B300093070002E5BF93070003CDBF93070006AC
:100B4000F5B793070007DDB793070005C5B793070F
:100B50000004E9BF8947FC81A686100822858D3DE7
:100B600099BFA947CDBFA686100822859535924624
:100B70000D47FD576367D7009387C184B697838776
:100B80000700FD178A07A2973147D8C38947FC8120
:100B9000FC82A68610080C4CD1B701A0FD158D472C
:100BA00063E6B7008A05AA95C84182800145828024
:100BB000EFF28FD9084D8545EF10A0206FF06FD967
:100BC0001C4D8A2305898280EFF20FD82A84CD3FFD
:100BD00005E5084C5E25858B95C301468545EF10DC
:100BE000201D2285F137084C8545EF10003D084C4B
:100BF00005468545EF10C01B6FF0AFD522854D3FF0
:100C0000E5BFEFF26FD48547AA842E846301F60214
:100C100089476304F604814719C09307F4FF8C4C9D
:100C2000C207C183DEB5268545376FF08FD2693E96
:100C3000B7450F0093850524EFF04FD4A285EFF060
:100C4000EFD1935505019C4C1397050141839AB749
:100C50008505EFF0AFD22A847DBFBD36A285EFF0C7
:100C6000EFD1C5B7EFF24FCEFD158D475111AA84D4
:100C70007D5463E6B70093874183AE978023884C09
:100C800036C232C0EF102033FD570246924663133E
:100C9000F40001A0930715003EC09307100863827B
:100CA000F60663EFD7029387F6FF3D47637AF708AE
:100CB000884C41679306F7FF5E35C207C183639591
:100CC000D7006313E6003E869147630AF40A63E6A1
:100CD000870845C08C4C2685C53D31016FF06FC734
:100CE000930720086381F60493073008E392F6FC2B
:100CF0009C4CB285CA370505EFF04FC693054006F8
:100D000039A832C2EFF05FACB7450F0093850524D8
:100D1000EFF0CFC61246B285EFF04FC48245EFF038
:100D2000EFC52A8671B732C4EFF01FAA22462AC245
:100D30000245B285EFF08FC29247AA853E85C5B7BE
:100D40009C4CB28536C0CA370505EFF02FC18246EC
:100D50008545B395D500FD15D9B7A1476307F402C2
:100D6000B147E319F4F693150601C181EF10000CA9
:100D700095B793150601C181EF10800AA1BF9315A5
:100D80000601C181EF10000AB1B793150601C181B8
:100D9000EF10800981B7B7370140938707C0630818
:100DA000F500B70700406316F50005458280014550
:100DB000828041657D158280EFF20FB92A84084D4B
:100DC000D93FAA8413058401EF10A0708A0413850B
:100DD000818A2695232A04009304440823200500D1
:100DE0001304440363878400C1142685EFF0BF9F7A
:100DF000D5BF6FF00FB6EFF22FB571112A84C16421
:100E00002E852EC0FD14413F82456313950001A03D
:100E10001C4C91C301A0931725001385818A3E9530
:100E2000930744011CC1930700085CD49307000496
:100E30001CD80CCC1305840140C8232E04002320A9
:100E4000040223120402EF10606513054403EFF05F
:100E5000DF9513054404EFF05F9513054405EFF0AB
:100E6000DF9413054406EFF05F9413054407EFF099
:100E7000DF93084C232004002322040023240400D1
:100E80002326040023280400232E040004D08545D3
:100E9000EF007073084C9305C401EF00F04A110194
:100EA0006FF02FABEFF24FAA232E05022326050485
:100EB000232E050423260506232E0506232C0500D4
:100EC0001D3FB7E700E0214723A2E7101307000208
:100ED00023A2E7101307000423A2E7106FF06FA707
:100EE000EFF28FA6184519E3EF10F0685C45829782
:100EF0006FF02FA611E101A0EFF20FA52A8408419F
:100F00008545EF10400C15C11C40DE27858B91CF25
:100F10002285EF10605808415C5D81C713054503C9
:100F2000C13708408545EF10800B6FF08FA203A5F5
:100F3000818A19C111057D3F7300203011E101A0A4
:100F40001C41DA27098B11EBDA27118B19E7DA2715
:100F5000218B01E7DA27418B3DCFEFF2EF9E2A8408
:100F600089453E85EF1020061C401DC189453E8500
:100F7000EF10E00685442285EF10005208419204EC
:100F80009384440326951C4591C3993F6FF06F9C51
:100F90003E859145EF1020031C4019C591453E85C3
:100FA000EF10E0038944C1BF3E85A145EF10A001C9
:100FB0001C4019C5A1453E85EF1060028D4465BFF8
:100FC000C1453E85EF1020005DD50840C1459144E4
:100FD000EF10E0004DB7828003A5818A19C1110589
:100FE000B13F73002030711122C01384818A4840C0
:100FF00011C5110501374840110589370244110117
:1010000073002030EFF24F942A84EF10305348C41D
:101010001C402285DC4B8297635A0500EF1010526A
:101020005C441D8D1C44E365F5FE7D556FF06F92A9
:10103000EFF28F916111AA8401442EC232C0630D78
:10104000C4002685C1376349050092450246B3872F
:10105000850088A30504D5B7228521016FF06F8F25
:10106000EFF28F8E5111014495C6B684AA870144D0
:101070003E8532C42EC23EC07137634D0500924595
:10108000630AB500224682473307860008A3050499
:10109000E39084FE228531016FF0AF8BEFF2CF8AAF
:1010A00041113AC62EC032C236C49377F50F454778
:1010B0006361F7060D678A071307072DBA979C43EC
:1010C00013760570B364F60013D544003D8969209A
:1010D0002A840DCD85450545EF00D01493071002F5
:1010E0006399F40037053000854513050540EF008E
:1010F000A079854713F6F4003396C7002247B2471C
:10110000924682454206418222859D2641016FF02A
:101110004F841377050C9306000CFD54E316D7FAA1
:101120001307700CE362F7FA9377F5030D67130763
:10113000072B8A07BA979C430D671307072D8A0769
:10114000BA97904313750570B364C500B5BFEFE25D
:10115000BFFF112E6FE0FFFFEFE21FFF8547630225
:10116000F50219C589476305F50201456FE07FFE69
:1011700011458545EF00100B37150140130505801B
:10118000F5B741458545EF00F00937150140F9BF36
:10119000130500028545EF00F008371501401305DF
:1011A0000540E9B7EFE25FFA8D6593854515EF10CD
:1011B00020203D819377F50125476373F70001A057
:1011C0000D651305C53A3E9508216FE09FF8EFE2E3
:1011D000BFF7B7270140938707406317F5008545A0
:1011E00013050020EF00100403A5018193173501BA
:1011F00063C707008D6593854515EF10C0146FE038
:101200005FF5EFE27FF48145D52E6FE09FF4EFE2CA
:10121000BFF30111AA84614681452800EFE05FE831
:10122000939734012313010063D90700856785076D
:1012300063E597006381F40801A08D6593854515EA
:101240002685EF1020142A842685A93FAA872285A7
:101250003EC023A89180A53F3165EF00A0710547EE
:10126000230EE1002C0037070E0022853ACA02CC7B
:1012700002C602C402C8252E85452285232004000B
:10128000B52E824722859D4693F5F70F0546592EC8
:1012900085452285A52E8945228591216DDD7C44D9
:1012A0002285C207C1837C83A93F2285F12C288334
:1012B00005616FE01FEA37240140A1471304044091
:1012C00079B7EFE27FE801118D642EC49385041C89
:1012D00032C636C82AC0EF10E00AEFF0DFAB931633
:1012E00025001387818A369710431384818A15E677
:1012F00002459385041C3ACE36CCEF10A0082ACACA
:1013000013054008EF105024D2452AC2EFF09FB9D0
:1013100072471246E2461C4390C33305D4001C4179
:1013200002459385041C8043EF1080083D8193742F
:10133000F501A6852285EFF07F862AC295476308CE
:10134000F50082461546A6852285EFF02FEDA245D1
:1013500009462285EFF0FF8AC2463246A6852285DD
:10136000EFF05F90124795476305F7002285EFF095
:101370006FDE05616FE0FFDDEFE21FDD8D6651116D
:101380009385061C2AC0EF00F07FEFF0DFA0131753
:1013900025009384818ABA948C401384818A024602
:1013A0008DE58D669385061C32853AC4EF00907DED
:1013B0002AC213054008EF10301992452AC0EFF0F9
:1013C0007FAE9C408246224794C3B307E4009C430F
:1013D000804309C82285EFF03F9E9305400822858F
:1013E000EF10D01831016FE0DFD603A5018B83A584
:1013F000418B82808280EFE23FD5C53F6FE07FD591
:101400009387018B03A3070083A3470013071300EF
:101410003335670098C3B3067500D4C3E13FB7F70F
:1014200000E023A2070073002030EFE2FFD137F481
:1014300000E023220400232004002324040003A549
:1014400081819305803EEFE07FD37D1508C8BD47BD
:101450001CC07D57B7E700E02386E740056723A05F
:10146000E7106FE01FCFEFE23FCEC1376FE07FCED6
:10147000EFE29FCD130181FD2A8336C0BE8423177E
:10148000010002CC02CE02D002D2B2860144054550
:101490006388A60093071400858213F4F70FCDBF6D
:1014A0008D461A852ECA6C003AC436C81AC2708698
:1014B000C52C1243B7160140094522476308D300E3
:1014C0009386064001456313D3000D45A2853AC2B9
:1014D000B5298D66131624009386863BB2969442F6
:1014E0001247280836CC854636D23ACE26D0052477
:1014F00037070020931734001307C700BA97024735
:101500009043FD55D8C337E700E0B307C7002380F9
:10151000B740935756009387070485468A07B396CA
:10152000C600BA9794C3130181026FE09FC281473E
:1015300005476307E5008507058193F7F70FD5BFDA
:10154000370700208E071307C700BA97DC4391C7FF
:10155000EFE29FBF82976FE0DFBF8280611122C2FE
:1015600026C00544A1442285012C19C522852524C5
:10157000131504014181653FFD140604EDF4124486
:101580008244210173002030B72701409387074030
:10159000631EF500EFE25FBB854513050020C921FE
:1015A0008145130500206D296FE0BFBA82805C4140
:1015B0003707F1FF1307F7EF7D8FDC419441A20756
:1015C000D58FD98F5CC11C4537F7F1FF1307D77F43
:1015D000D4457D8F9C49D58F94458606D58FD98F6C
:1015E0001CC55C55370710FF7D177D8FDC29FD1763
:1015F00093F7F70FD207D98F5CD582801C4589C538
:1016000093E717001CC58280F99BEDBF1C4591C56F
:1016100037075000D98F1CC582803707B0FF7D1770
:10162000F98FD5BFA54763F8B704138765FF9317F4
:1016300017008322C500BA971D433313F3001343E9
:10164000F3FF33735300B397F600B3E767005CC54D
:10165000994763E3C7047D16931726003E965859B1
:10166000FD47B397C70093C7F7FFF98FB395C50040
:10167000DD8D4CD982809397150003230501AE9729
:101680001D473317F7001347F7FF33776700B3970A
:10169000F6005D8F18C96DBFB14763E2C7026516DA
:1016A000931726003E961859FD47B397C70093C776
:1016B000F7FFF98FB395C500DD8D0CD982804D16EB
:1016C0001317260054553A96FD47B397C70093C7A2
:1016D000F7FFF58FB395C500DD8D4CD582800841AD
:1016E0006D8D3335A0008280138741811C43938622
:1016F000019C3E956369D500938601D463E5A600FD
:1017000008C33E858280FD57EDBF828082805841AC
:10171000032305004C4537060140930706403E97DA
:101720009346F3FFB1C583250640F58D2320B640CF
:10173000D043F18ED4C31443B3E6660014C31841FA
:1017400090479346F7FF758E90C7D047F18ED4C768
:10175000144541466399C6009447D98E94C7D4472F
:10176000558FD8C78280B6979443558F98C382808F
:101770001C43F58F1CC38280B707014013870740C5
:1017800083A70740584B698F09C77D8D3335A0006B
:10179000828001458280B707014023AAA74082804A
:1017A0009C45611122C226C013F7070113F3F7000D
:1017B00001C7D8413363E30092211377F60F29C79D
:1017C00083230500014713048002930480048546A7
:1017D000B395E600B376B6006392D5029312270064
:1017E000BD46B396560093C6F6FFB3F37600B31228
:1017F0005300B3E37200639787064CC90507A146FF
:10180000E317D7FC232075001307F00F6378C70494
:1018100083234500A14613048002930480040547F6
:10182000B312D700337756006394E2021397260071
:101830000117BD45B395E50093C5F5FFB3F37500FA
:101840003317E300B363770063928702232A5500BE
:1018500085064147E395E6FC232275001244824445
:1018600021018280E39C97F80CC949BFE39297FE5F
:1018700023285500F1BF08456D8D3335A0008280C7
:101880000CC982804CC98280370301400327430082
:101890009317350063D00702B707C0FFF517F98F1C
:1018A00037070007D98FD9CD370700F07D17798D1D
:1018B000C98F49A8635D0500B707E0FFED17F98FF1
:1018C00037070007D98FBDCD06050581D5B7B70706
:1018D0003000931605013376F500C1826313F602DA
:1018E000370600F97D16B377C70003274300798ECA
:1018F0002322C300A1C95581131745003395E60083
:1019000045BF9317B50063D407029357050113F63B
:10191000F7008D47B397C70093C7F7FFF98F3707D5
:101920000007D98F85C1135755011207C1BF5581D3
:1019300012053395A6009347F5FFF98F3707000787
:10194000D98FBDF5370701405CC38280370701405E
:10195000144786058D47B397B70093C7F7FFF58FF8
:101960001CC71C47B315B500DD8D0CC78280730002
:10197000203001A0B7160240DC4241771307F77F01
:10198000F98F5D8DC8C28280EFE20FFC37170240ED
:101990005C4391462A84B18B6385D700A146638D51
:1019A000D706B7376E01938707601CC0B716024091
:1019B000DC42918313F7F700B707002093870706EF
:1019C000BA978C23DC42184093F5F50F93F707087C
:1019D0003355B70081E73A85EFE04FFA48C008C4B5
:1019E00048C4B7170240DC43AD83FD8B13D73700E3
:1019F0008A07F18BD98F93F637010D476373D700B0
:101A0000D117370700201307C704BA978C23EFE0DC
:101A1000EFF608C86FE0EFF35C43B777DC0293871B
:101A200007C061B799C5371702401C4F5D8D08CFBD
:101A30008280B7170240984F1345F5FF798D88CF04
:101A4000828099C5371702405C4F5D8D48CF8280F8
:101A5000B7170240D84F1345F5FF798DC8CF828064
:101A600099C5371702405C475D8D48C78280B7171C
:101A70000240D8471345F5FF798DC8C782801E31D3
:101A80009206C207C183F99BC207C1831EB11A2DFA
:101A90001E31035385014207418333636600137788
:101AA000C7F0558E518FB7360140C2074207231C3D
:101AB0006500938606C0C18341836306D500B706DF
:101AC00000406319D500F59BCD8F93E717001AAD41
:101AD0001EB18280D59BCDBF1E3122064206C207B1
:101AE000C183BD9BC207C1831EB1035385018567B6
:101AF0009387F7CF1A31B3F767000353850141820B
:101B0000B20633636600558ED18FB7360140420767
:101B1000C207231C6500938606C04183C183630608
:101B2000D500B7060040631DD50092051377F7FD79
:101B3000D98DC205C18193E505011EAD0EB182802C
:101B40001377F7F5D98DC5BF1E213737014013072D
:101B500007C0C207C1836306E5003707004063166C
:101B6000E500BA2193F7F7F8D98FFA2193F7F7CF69
:101B7000C207C183D98F1EA1DE215EB59E211EB58D
:101B8000B7370140938707C06314F5009C251EB941
:101B900085475EA982801E31922103D32500C207AA
:101BA000C183F99BC207C1831EB11E3156211A2D74
:101BB000C207C183420741831377C7F8518F92252B
:101BC000F59BC20633666600D18F37360140130697
:101BD00006C0C1826310C502B225DD9B03D3E500B8
:101BE000D18FD221ED9B93F6F6CFD18FD2253366DC
:101BF0006600D18E56A11AADFA2158D91EB1828045
:101C00001E3165771307F7CFC207C183BD9BC2079B
:101C1000C1831EB11E31562103D38500C20713961E
:101C20000601162DC18393F7F7FD758F962141822A
:101C3000A206558FB62142074183B3E6660092069D
:101C4000D58FB7360140C207938606C0C183631E95
:101C5000D502B62593F7F7F703D3C5009206D58FC3
:101C6000D621C207C183920693F7F7FBD58FFD7685
:101C70009386F63FF18EF225C207C1833366660074
:101C80000A06D18E13960601418252A11AADFA219D
:101C900018DD1EB182801E31922103D38500C20758
:101CA000C18393F7F7EFC207C1831EB11E315621DE
:101CB0005A2DC207C183420741831377C7F8518F5A
:101CC000B22193F7F7DFC206336666002206D18F92
:101CD00013960701B7370140938707C0C18241823D
:101CE000631FF502FD779387F77FF18FB22503D34A
:101CF000C5002206D18FD221C207C183220693F7E5
:101D0000F7BFD18F13960701F577FD17FD8EFE25DE
:101D10004182B3E767009207DD8EC206C182FE21D1
:101D200056A15AAD5CDD12B182801A31FD77FD17E4
:101D3000F98F1EB1035305025A215E2DE576938675
:101D4000F6CFFD8E9E2113160701BA21A207DD8E64
:101D5000F977FD17B3F7670003D38500C206418208
:101D6000336767003207D98F37370140C20713073F
:101D700007C0C182C183631BE50071777D17718F36
:101D8000D2251A06518F131607014182FA2152A15A
:101D900056AD38C11EB182801E2189C593E7170058
:101DA0001EA18280C207C183F99BC207C183CDBF38
:101DB0005E2501C6DD8D4EA5828093C5F5FFFD8DA4
:101DC000DDBF4EA982801E2189C593E707081EA1A9
:101DD0008280C207C18393F7F7F7C207C183C5BFEB
:101DE0001A318547B397B70093C7F7FFF98F1EB134
:101DF0001E31B315B600DD8DC205C1810EB18280E2
:101E00001A319147B397B70093C7F7FFF98F1EB107
:101E10001E31B315B600DD8DC205C1810EB18280C1
:101E20004CD982800CDD82804CDD82802CC1828086
:101E30001E2DC207C183CD9BC207C1831EAD1E2DBF
:101E4000DD8D0EAD82801A2DFD779387F73FF98FD8
:101E50001EAD1E2DA205DD8DC205C1810EAD828095
:101E60005E2DC207C183CD9BC207C1835EAD5E2DCF
:101E7000DD8D4EAD82805A2DFD779387F73FF98F28
:101E80005EAD5E2DA205DD8DC205C1814EAD8280A5
:101E9000EFE28FAB9A212A84AE84BE21D22196250F
:101EA00009EBBE85EFF0BFBDEE20228551376FE014
:101EB0004FAA91456319B700BE85EFF0FFC1EE2030
:101EC00022855137EDB72145EE20631AA7061A3057
:101ED0009206420741831377F7EF420741831AB016
:101EE0004A2C1A300353C401420541811375C5F0D1
:101EF00033636600498E558EB7360140420742066D
:101F0000231E6400938606C0418341826306D40089
:101F1000B7060040631FD400A2071377F7DFD98FFD
:101F2000C207C18393E7071052AC1EB022850D3F54
:101F3000BDBFFD769386F65F758FD98FE5B70A3002
:101F40007D777D17698F1AB04A2C05671307F7CF85
:101F500003530402698F22064A2C42064182B206CC
:101F6000518D558E598E37370140420342064AAC97
:101F7000130707C01353030141826306E4003707C8
:101F800000406312E40279777D17B2073373E300F0
:101F9000B3E76700C207C1830567D98F52AC1EB093
:101FA0002285D13D29B721671307F7DF3373E3009B
:101FB000B3E76700D5B70A35828093C5F5FFC20540
:101FC000C1810EA982801E294A25ED8F42054181DB
:101FD00089C76D8D3335A00082800145828093C50D
:101FE000F5FFC205C1810EA98280EFE2EF951629A7
:101FF000F577FD17F58FF621DA252111D58F1EA96A
:102000005625FD779387379FF58FD6212A842EC0DA
:10201000D58F9625D58FB625D58F5EA55E29C207AB
:10202000C18393F7F7CF5D8F5AA94800EFF0DF9592
:10203000B74701409387078082456312F406C24781
:102040005A24139517003E9542070E0541873E9589
:102050008C41635807048605EFE04F9293054006D4
:102060002AC0EFE0AF9182479314450093054006E4
:102070003E85EFE06F935E24C207C18763D50702F8
:102080000E059305400613052503EFE02F8F1D89EC
:10209000C98CC204C18006A461016FE08F8BB24776
:1020A00045B78A0555BF120593054006130525035C
:1020B000EFE0CF8C3D89E9BF91C55E250967D98FD7
:1020C0005EA582805A25F977FD17F98FD5BF93F564
:1020D000F51F4EA182804A211375F51F82805E296B
:1020E00089C593E787005EA98280C207C183DD9B13
:1020F000C207C183CDBF0A216D8D3335A000828018
:10210000B71702409843B706FFFC1367170098C340
:10211000D843758FD8C39843B706F7FEFD16758F61
:1021200098C39843B706FCFFFD16758F98C3D44338
:1021300041777D17F98ED4C3B7069F0094C7B726A1
:1021400002409042719A90C290421366160090C26B
:10215000D443D4C3D443758FD8C3D843B706000142
:10216000D8C39843558F98C3984393166700E3DD0F
:1021700006FED843B7160240719BD8C3D8431367F5
:102180002700D8C32147DC42B18BE39EE7FE828063
:10219000FD577D576317F500014582806387A700CF
:1021A000B1059C41E39CE7FEC5BF05458280EFD2A7
:1021B000BFF9311102C402C602C8FD576313F5000E
:1021C00001A093D7854093F4F7079377F500139711
:1021D00027008D6793874744BA979C4311813D89B7
:1021E0002E843EC0EFE05FF72AC28DC485450545C9
:1021F000EFF05F839387F4FF6947636DF7000D6726
:102200008A071307873DBA979C4382878545054512
:10221000EFF08FE793572440137734008D8B7DC701
:102220003AC609476380E70E0D47638FE70C054701
:102230006388E70CC1473EC8EDA08145C9BF85450D
:10224000370500100905E9B7854537054010DDBFA2
:102250008145E5BF854537050080110555BF85459A
:102260003705208075B7854537052080FDB7814546
:10227000E5BF3705160085451305050451BF8545A3
:10228000370516001305050861B7854537051600A3
:102290001305050CB5BF8145D5BF37051800854529
:1022A00013050510B5B7370518008545130505203A
:1022B00085B78545370518001305053091BF814561
:1022C000D5BF85452165A9B78145EDBF8545370552
:1022D00020008DBF8145E5BF854537052000B5BF8E
:1022E0008145E5BF85453705200069BF8145E5BFCC
:1022F0008545370530001305054019BF8145D5BF19
:10230000D14715BFE14705BFF14735B7054763839F
:10231000E70299C789466381D7029307800221BFEC
:1023200002C8824712452C007C84EFF06FC7510130
:102330006FD03FE2914701B711840D889307800465
:10234000E31DE4FCCDBDFD577D57631DF500828084
:102350006399A700EFD25FDF8C45EFF05FE56FD0A8
:102360005FDFB1059C41E395E7FE01A07D579C41ED
:102370006394E700014582806394A700C84182808E
:10238000B105F5B7FD576307F500EFD2FFDBF93F65
:102390006FD03FDC014582807D579C416394E7000C
:1023A0007D5582806394A70088458280B105F5B78A
:1023B000FD576307F500EFD23FD9F93F6FD07FD9C2
:1023C0007D5582806305B50019C181E5AA852E85FA
:1023D00082808145EDBF01A001A001A001A001A064
:1023E00001A001A001A001A001A001A001A001A0E5
:1023F00001A001A001A001A001A001A001A001A0D5
:1024000001A001A001A001A001A001A097E1FF1F70
:102410009381414F138101F0171500001305C50C7E
:1024200097E5FF1F938505BE1386818563FAC50076
:102430008322050023A0550011059105E3EAC5FE9E
:10244000138581859385019C6377B5002320050062
:102450001105E36DB5FE93020008739002308D42C2
:102460007390428097E2FFFF9382C2B993E23200F9
:10247000739052301715000013050592EF00F0100D
:10248000EF00F014EFF0DFC7970200009382C23C28
:10249000739012347300203071158280EFD2DFCA3E
:1024A0001841B7370140938707C02A846318F700A3
:1024B0000565854513050580EFF0CFD61840B707B1
:1024C00000406316F70085450545EFF08FD76FD0C4
:1024D0005FC8EFD27FC71841B7370140938707C065
:1024E0002A846318F7000565814513050580EFF020
:1024F0006FD31840B70700406316F70081450545C4
:10250000EFF02FD46FD0FFC4EFD21FC48D65938539
:10251000051CEFF0FFE93D817D897D158D4763F353
:10252000A70001A0938701853E9508216FD07FC247
:10253000EFD29FC11301C1FDAA84084D32C60D66BA
:102540002EC4930586293ACA36C8EFF0BFE32AD0D5
:10255000C84C8D6693850628EFF0DFE22A84885008
:102560008D6593858526EFF0FFE12AC0C8508D6503
:1025700093850525EFF01FE102570D668D662AC28F
:1025800032CC36CE630B070ED04CFD566304D6001A
:102590006305040E9050FD566305D6008247638E96
:1025A000070CD050FD566305D60092476387070C91
:1025B0003A85A285EFF01FE1824588C0EFF09FE0E9
:1025C000924588C0EFF01FE088C045C937470140F9
:1025D00013070780631BE50085451165EFF08FC485
:1025E000130700022386040298D4E247884C93859F
:1025F0008729EFF05FD519C4F247C84C93850728A7
:10260000EFF07FD48247814689CB88508D659385D2
:102610008526EFF05FD393060010924799CBC85000
:102620008D6593E606209385052536C0EFF0BFD172
:102630008246A24703C7C40288409CC4B24713160F
:102640002700DEA4D2471387818B3297FEA4C247AE
:102650001386440010C33147C8C09EA8BAA8D6A8A4
:1026600001E48545EFF0BFA7C84093858400EFF0F3
:10267000DF97C8408545EFF03FA4130141026FD0BA
:102680005FADEFD27FAC8D6783A7472C0D67130733
:10269000072D8A07BA9780438D6593858529228502
:1026A000EFF05FCE05C137050020F1659307050700
:1026B000014781460146938505201305050780CF14
:1026C000EFF01FE76FD0FFA8EFD21FA88347C50226
:1026D00093050002139727009387818BBA979C4339
:1026E0008843EFF05FA1133515006FD09FA6EFD29E
:1026F000BFA58347C502930500041397270093875E
:10270000818BBA979C438843EFF0FF9E13351500E9
:102710006FD03FA4EFD25FA3411137040020AA84F9
:102720002EC2EFE09FCC9307040783C7C7022AC4D9
:102730001304040785E70347C4029387818B0A07C4
:10274000BA979C43F1173EC09387818B3EC6824760
:10275000C1EF02C2124541016FD0BF9F8D6783A7B1
:10276000472C0D671307072D8A07BA979C438D6680
:10277000938586293E853EC0EFF0DFC08D6671D916
:10278000230604021387818B1C4399EF8347C402FD
:10279000850793F7F70F2306F402FDD7EFF07FEEDE
:1027A0008347C402C9DB75B7024593858629EFF0DC
:1027B0007FBD0346C4021387818B93172600BA9707
:1027C0009C438D669C43E393A7FC35D6C1BFEFE0E5
:1027D000DFC1A247B307F5403335F500E39BA5F60B
:1027E0001307703EE367F7F60245EFF05FF065F11F
:1027F0009247A6973EC4A247E38EF4F40245EFF059
:102800001FEF6DFD8347C402324785048A07BA97DC
:102810009C4383C5F4FF8843EFF07F8BE9BF11E54C
:102820007D5582807D556FD0DF92EFD2FF91AA84D3
:102830002E84EFF07FE97DF583C7C402139727004C
:102840009387818BBA979C438843EFF0DF8808A079
:102850000145D1BFEFD25F8FEFE07F8FEFD0BFC7D1
:10286000EFD03FCEF5BF93574500BD8B0947636658
:10287000F7020D671307072D81471376F50FC94639
:102880000C436397C50013750570C98F3E85828020
:1028900085071107E396D7FED5BFC947C5BF937615
:1028A000850FAA87ADE61376F50F0D671307072B83
:1028B0000A063A96104213770570C545518F137674
:1028C000F70F63E7C50C0D671307072D0A063A9645
:1028D000084213F7F70F8DC293F6070C1306000C8E
:1028E000130700706393C60293F6F70F1306700C7C
:1028F000636DD60013F7F7038D660A079386062BE0
:10290000369718435D8F13770770598D8280137740
:10291000050C1306000C7D55E31AC7FE13F3F70FE1
:102920001307700C636D670013F7F7030D6613064A
:10293000062B0A07329710234547E376C7F813079B
:10294000700C6360670213F7F7030D661306062B1E
:102950000A07329718431306000C1377070C631FFE
:10296000C7029305700C7D55E3E265FA13F6F70391
:102970000D671307072B0A063A96104213F70770E4
:10298000518F1376F70F1377F70363F1C502828037
:102990009375070C1305000C6384A5007D55828098
:1029A0009305700CE3ECC5FE1377F7030D660A0779
:1029B0001306062B329718438D659385052D0A075C
:1029C0002E97084313F7F70F8DC293F6070C930564
:1029D000000C13070070E39AB6F293F6F70F930515
:1029E000700CE3E4D5F213F7F7030A07329711BF2F
:1029F0006387C502637DB600918D8547B397B700A5
:102A0000636EF50005053355B5007D15828001C95B
:102A10000505B305B6403315B500C5BF0145828035
:102A2000EFD28FF2EFF0BFE7FD57630EF50013848E
:102A3000C1810C40EFE0AFFD03A641820C40EFF0F6
:102A40003FFB6FD00FF10145EDBFEFD2EFEF937772
:102A5000F50F45476111636FF7060D678A07130786
:102A6000072DBA979C43137405705D8CFD57630066
:102A7000F4062EC08D65AA849385051C2285EFF08F
:102A80002FF11383C18235C99357240013F7C7036D
:102A900093874192BA9790439375F400B356B6006A
:102AA000858A91E605473317B700518F98C383A6EF
:102AB0000182832503000245368636C2EFF05FF3BC
:102AC000924683A581822A862285EFE08FFF21012D
:102AD0006FD02FE81377050C9306000CE319D7FE8F
:102AE0001307700CE365F7FE9377F5030D678A070C
:102AF0001307072BBA979C438DB78545268515206C
:102B00001383C1828325030002452146EFF05FEE67
:102B10001307F00781456373A70085452685DD28E7
:102B20007DB79377F50F45476366F7080D678A070A
:102B30001307072D3E97184393770570D98F7D575C
:102B40006389E70CEFD24FE013D42700138741923B
:102B50001374C4032297184393F4F70051113357A9
:102B60009700938641922EC0058B36C205CB8D65AA
:102B70003E859385051C3EC4EFF08FE1A24709C551
:102B80003E85EFE06FFFA24712473A940547B31422
:102B90009700184093C4F4FFF98C04C0824615478F
:102BA0006368D7060D671307474693952600BA95C5
:102BB000984102871377050C9306000C631BD7041A
:102BC0001307700C6367F7049377F5030D6713071A
:102BD000072B8A07BA979C430D671307072D8A07AF
:102BE000BA979C4313750570C98F91BF91453E8577
:102BF000EFF0EFDB31016FD0CFD58D45CDBFE14593
:102C0000FDB793058002E5B78145D5B79D45C5B7AA
:102C100001A08280EFD24FD31377F50FC547AE8660
:102C200063E6E7048D679387072D0A073E971843ED
:102C300013750570B367E50013D747003D8B094650
:102C400001456369E600370600200A0713060600FF
:102C5000329708438545BD8BB397F50093950701DF
:102C6000C181B1C2EFE0DFC16FD0AFCE1376050CEA
:102C70009305000CFD57E311B6FC1306700CE36DD1
:102C8000E6FA9377F5030D671307072B8A07BA97C0
:102C90009C430D671307072D8A07BA979C4313754A
:102CA0000570C98F51BFEFE0FFBD7DBFEFD2CFC927
:102CB0009377F50F45476366F7040D678A07130797
:102CC000072DBA979C4313750570B365F50093D72C
:102CD0004500BD8B094701456369F70037070020B0
:102CE0008A0713070700BA9788438547BD89B395BC
:102CF000B700C205C181EFE01FB83335A0006FD027
:102D00004FC51377050C9306000CFD55E311D7FC56
:102D10001307700CE36DF7FA9377F5030D6713074C
:102D2000072B8A07BA979C430D671307072D8A075D
:102D3000BA978C4313750570C98D51BFEFD2CFC0C0
:102D4000EFE06FEB6FD0EFC0511122C206C42A84AE
:102D500011E105442285FD2011E5112811E105202E
:102D60000295CDBFA24012443101828001A8938711
:102D7000C18B88438280511106C41120C9A851110A
:102D8000194506C4E12C05456D2EAA8581460146EC
:102D9000014509A65111970700009387E77422C2E5
:102DA00017040000130444741D8C26C006C4098453
:102DB000BE8419E41244A240824431016FE0FF94C2
:102DC0007D1493172400A6979C438297DDB7511179
:102DD00022C2970700009387A7701704000013040E
:102DE00024701D8C26C006C4098481446396840225
:102DF000EFE0DF91970700009387876E17040000CC
:102E00001304846E1D8C0984814463928402A24061
:102E10001244824431018280139724003E97184364
:102E200085040297970700009387876BC1B71397B4
:102E300024003E9718438504029797070000938764
:102E4000276AE1B793870183AA85884345A89387BA
:102E50000183AA85884309A0CDC183A7C5FF51116D
:102E600022C206C426C01384C5FF63D307003E9464
:102E7000AA84552C9387018C9C4399EB2322040050
:102E800023A0818C1244A24026858244310169AC82
:102E9000637EF40014403307D4006396E700984340
:102EA000DC43369718C05CC0E1BFBA87D84319C36A
:102EB000E37DE4FE94433386D700631F8600104011
:102EC000B29694C33386D700E31EC7FA1043584323
:102ED000B29694C3D8C37DB76375C400B1479CC094
:102EE00055B71040B306C4006316D70014435843C7
:102EF000B29614C058C0C0C371B78280411126C2B7
:102F000093843500F19806C622C4A104B14763F545
:102F1000F404B14463E4B4042AC031241387018C5F
:102F200014438247368439E01387418C184301EB00
:102F30003E8581453EC0692823A2A18C82473E85FB
:102F4000A6853EC071207D5782476314E506314750
:102F500098C33E85D12A29A0E3DE04FAB1471CC1FB
:102F60000145B24022449244410182801840058FBD
:102F7000634E07022D466376E60018C03A9404C0FB
:102F800031A058406392860223A0E18C3E85692AD5
:102F90001305B400130744006199B307E540F1D36A
:102FA0003E94098F18C075BFD8C2CDB7A2864040E5
:102FB0009DBF130435007198E30385FCB305A4405D
:102FC0003E853EC031207D578247E31AE5FA41B77E
:102FD000511122C22A842E8523AE019A06C4EFE045
:102FE000AFF0FD576317F5009387C19B9C4391C3D6
:102FF0001CC0A240124431018280FD4763F6B70035
:10300000D9471CC17D5582807C41411122C406C62E
:103010002E862A8491C713972500BA97984319EBF7
:10302000228532C0BD20AA85228522440246B240B4
:1030300041011DA8854601456308D700FD56631967
:10304000D700D9471CC00545B240224441018280C7
:103050002E8523A0070002970145FDB793870183C2
:10306000AA8588436FF07FF9511122C22A842E85E8
:10307000B28523AE019A06C47D28FD576317F5007B
:103080009387C19B9C4391C31CC0A2401244310151
:10309000828061A89387818C9C43AA8399EF1387D0
:1030A000019323A4E18C17D5FFFF1305A5F5BA877B
:1030B00009C51C4123ACF19ABA87D8437D437D559D
:1030C0006346E304638D030203A3870863000304DC
:1030D000931227009A9223A0C200032503100546ED
:1030E0003316E600518D2320A31023A0D208894671
:1030F0006397D30083264310558E2322C310930673
:1031000017000A07D4C3BA978CC70145828097D7A6
:10311000FFFF938727EF99C7170500001305C5C761
:103120006FF0BFC68280828082809307800523AEC5
:10313000F19A7D5582809307800523AEF19A7D55E3
:10314000828001A019000000320000004B00000046
:1031500064000000020000000024014000000000A4
:103160000100000000240140008000001400000065
:103170000024014000000100220000000024014062
:103180000080010023000000002401400000020034
:1031900025000000002401400080020026000000FD
:1031A000002401400000030024000000002401402E
:1031B00000800300FFFFFFFF000000000000000090
:1031C00024000000000000400B91000023000000DC
:1031D000000000400B110100100000000000004042
:1031E0000B91010027000000000000400B110200BD
:1031F00022000000002C01400B8D000001000000A7
:10320000002C01400B0D010013000000002C0140B8
:103210000B8D010014000000002C01400B0D02007A
:1032200020000000002C01400B8D00000200000077
:10323000002C01400B0D010021000000002C01407A
:103240000B8D0100FFFFFFFF0000000000000000E9
:10325000230000000038014018000000FFFFFFFFBE
:1032600000000000000000001200000000380140D3
:103270000B000000FFFFFFFF000000000000000047
:10328000260000000038014018000000FFFFFFFF8B
:103290000000000000000000250000000038014090
:1032A0000B000000FFFFFFFF000000000000000017
:1032B0000100000000000000060000000C000000FB
:1032C0000D0000000F000000100000000E000000C4
:1032D00001000000020000001000000011000000CA
:1032E0001200000013000000140000001500000090
:1032F0001600000017000000200000002100000060
:10330000220000002300000024000000250000002F
:103310002600000027000000000000000000000060
:1033200064060000980600005A0600005E060000D1
:10333000600600007C0600006006000030100000FF
:10334000601000004C0900004C090000A2080000B9
:10335000A2080000A2080000A2080000A2080000C5
:10336000A2080000A208000046090000460900006B
:1033700046090000D2080000AA0A00000A0B00005B
:103380002A0B0000300B0000360B00003C0B000045
:10339000420B0000480B00004E0B0000580B0000D1
:1033A000540B0000620B0000660B000000010203DA
:1033B00004050607080900000100000002000000E3
:1033C00004000000080000001000000020000000C1
:1033D00040000000800000000C2200003A220000A3
:1033E0003E2200004822000050220000542200002B
:1033F0005E220000662200006E22000072220000A1
:103400007E2200008A220000962200009A220000FC
:10341000A6220000B2220000BE220000C22200004C
:10342000C8220000CC220000D4220000D8220000D4
:10343000E0220000E4220000EC220000F022000064
:10344000FC22000001000000020000000400000057
:1034500008000000100000002000000040000000F4
:1034600080000000EC2B0000FA2B0000FE2B000077
:10347000022C0000082C00000C2C000000000000B2
:10348000000000000000000000000000000000003C
:10349000000000000000000000000000000000002C
:1034A000000000000000000000000000000000001C
:1034B000000000000000000000000000000000000C
:1034C00000000000000000000000000000000000FC
:0C34D000000000000000000000000000F0
:0834DC000E310000940700000E
:1034E40000080140001001400014014014000000D5
:1034F40000000000140000000000000014000000A0
:10350400000000001400000000000000140000008F
:10351400000000001400000000000000140000007F
:10352400000000001400000000000000020406086F
:1035340004080C100810182010203040204060802F
:10354400010203040506070801020304050607082F
:103554000000000000000000000000000000000067
:103564000000000000000000FFFFFFFFFFFFFFFF5F
:10357400FFFFFFFFFFFFFFFF00000000010000004E
:10358400000000009C340000BC3400007C340000C7
:103594000000000000000000000000000000000027
:1035A4000000000000000000000000000000000017
:1035B4000000000000000000000000000000000007
:1035C40000000000000000000000000000000000F7
:1035D40000000000000000000000000000000000E7
:1035E40001000000010000000100000001000000D3
:1035F400FFFFFFFFC0020020006CDC020A00000095
:103604000C0000000A000000E80300000C000000A9
:10361400A00000200004080C040040000004000086
:10362400010010000001001002040810020104034C
:083634000004080C0000000076
:00000001FF
