:100000006F20206E00000000421C0000461C000013
:1000100000000000000000000000000000000000E0
:1000200000000000000000000000000000000000D0
:10003000D416000000000000B226000000000000FE
:10004000B4260000B6260000B8260000BA2600003C
:1000500030180000BE260000C0260000C2260000A6
:10006000C4260000C6260000C8260000CA260000DC
:10007000CC260000CE260000D0260000D2260000AC
:10008000D4260000D6260000D82600000212000068
:10009000DC260000AC120000BA12000000000000D4
:1000A0003D432A876373C3029377F700BDEFADE545
:1000B000937606FF3D8ABA960CC34CC30CC74CC757
:1000C0004107E36BD7FE11E28280B306C3408A0684
:1000D0009702000096966780A6002307B700A30644
:1000E000B7002306B700A305B7002305B700A30494
:1000F000B7002304B700A303B7002303B700A3028C
:10010000B7002302B700A301B7002301B700A30083
:10011000B7002300B700828093F5F50F9396850012
:10012000D58D93960501D58D61B7939627009702DB
:10013000000096968682E78086FA9680C1171D8F0A
:100140003E96E374C3F8A5B7511126C022C206C477
:10015000828282441244A240310182802A86014573
:1001600093F6150091C2329585810606F5F98280D5
:1001700000000000634E050263C305042E86AA85B5
:100180007D5515C285466378B6006356C0000606E5
:100190008606E36CB6FE014563E4C500918D558D7E
:1001A00085820582F5FA82808682C93F2E85828209
:1001B0003305A04063D70500B305B040C1B7B30510
:1001C000B0408682653F3305A0408282868263C745
:1001D0000500634905005D372E858282B305B04076
:1001E000E35B05FE3305A040513F3305B0408282FA
:1001F0000000A20542051387418D4D8E498E9386DE
:10020000418D130507039387418D131386009305D2
:10021000600263430300CD458EA289060606E316FD
:10022000D5FE13064706BA86239806028906E39D83
:10023000C6FE9E23B7060040BCC2B7070240D04F9F
:10024000799AD0CF1306A00490D398D7D84F1367CC
:100250001700D8CF9E223707024093E717009EA2CF
:100260001C4393F70702EDDF930700025CC33707D7
:1002700000401E23C207C183F99BC207C1831EA38E
:10028000828005472383E186B7070140094723AAF7
:10029000E7408280EFF25FEB81451305200CEF20F1
:1002A000D04481451145EF20504465B5EFF2DFE9B8
:1002B000D5370146814501452D3F371602401C4E7A
:1002C0008D6693E717001CCEB70701409847558FFE
:1002D00098C783A6C7401387074093E6060423A662
:1002E000D74083A6074093E6060423A0D740930691
:1002F000000423AAD7409447CD9A93E6860094C77A
:1003000083A6C74093E6260023A6D74083A60740CE
:1003100093E6260023A0D74089475CCB5C4E370785
:100320000010D98F5CCEB77700409843799B98C373
:1003300098431367270098C337F700E0832707D156
:1003400093E747002328F7D073005010B707EFBE9C
:1003500037E700E0938707083CC7E5BBEFF2DFDE35
:100360009317C5003385A740930540062135AA851C
:100370001305200CEF20D01AE9BBEFF2FFDC1305C8
:10038000000CEF2050179386818A0547A382E186EF
:10039000984293878196131627003E96050708C258
:1003A0000D8B98C28843D84385649385045E3A9543
:1003B0009847DC473A953E9509854D3329819387C7
:1003C000C4C11384818663E5A7002320040051B3D0
:1003D0009384340563F6A400930740061CC0C5BF90
:1003E000B307F540139517003E950E053E9593050E
:1003F00080430A05613308C0D9BFEFF2FFD403A7D9
:100400004188894771116307F70A1387818583073C
:1004100007009384418889E723A2A18A85471CA30A
:10042000138701891C436387A70808C32AC01305E3
:10043000600CEF20103503A6C1809386C18013871E
:10044000C18982476303C5001CC388C21443754633
:10045000B386D740138741806373D60008C3104327
:10046000138781801384418921EA0C438546639672
:10047000D50023ACF1882380018A10C335E61387A9
:10048000018A1423B5E283A681891306803EB386D0
:10049000D740637BD604854614A3984023200400EC
:1004A00085466310D7043EC0F533824723A004007D
:1004B00023A4F188110171B98546E310D6FC1443D9
:1004C000CDFE83A681899305201CB386D7409386F1
:1004D000E6FC63E5D5001440850614C023A2F18A2A
:1004E00069BF69FBE133F9B71440E9D603A5418A36
:1004F0001307C012898FE37FF7FA05472382E1864D
:100500009C4005476392E7041387C1886399F6020C
:100510001C43B70600808D068507F58F63D607005C
:10052000FD1793E7C7FF85071CC30D678A071307ED
:10053000C744BA9788431D3523200400A5BF8D47C3
:100540001CC313054006C5BFE5FB9387C188639DA7
:10055000E60023A007006545113585451145EF20CC
:10056000D01885479CC0C9BF0D4798C313054006E6
:10057000E5B783C64186938741861387418799E60D
:1005800014432546B306D540637ED616EFF2DFBB93
:1005900008C303C7518651119386C1872380070082
:1005A00036C083A7418813840188938481871DCF37
:1005B00083A681862547634BD70205476368F70208
:1005C0009305401FD5369307900F63EBA700824732
:1005D00023A007009307F00F1CC023A0040091A0E4
:1005E00082472320040023A00700C5BF0547638D71
:1005F000E7040947638DE7068DE79305803E6D3676
:100600009307301F63E6A702931785009305401FE9
:100610003385A740853682472320040088C023A065
:100620000700824790200C208823E136310115B65F
:100630009307803E3385A740931785009305401F9D
:100640003385A740253EC1BF03A7C18882469317C3
:100650001700BA97139727008D679387C741BA97FA
:10066000984398C2D8439C4718C09CC05DBF83A7DD
:1006700081863EC212479307300663D9E7000247DE
:100680009307C00D232004001CC381BF9305007D88
:10069000213E9307703E63EBA704931785009305F3
:1006A000803E3385A740F9341247930740062AC499
:1006B000998F139517003E950E053E95A9455D3C13
:1006C0002247BA85613C9305F00F6D34924708C00C
:1006D000A945139547001D8D713C2247BA85BD3C45
:1006E0009305F00F413C824788C3C5BD9307007D49
:1006F0003385A740931785009305803E3385A74037
:10070000B53C5DB78280EFF23FA4371402405C50E5
:10071000370700018545D98F5CD01145EF20C06DAA
:1007200085451305200CEF20206DAD36814513055E
:10073000000CEF20606C89451305600CEF20C06B46
:1007400089450D45EF20406B37060000130626282B
:1007500093058004314781460D45EF0070411C4CE4
:1007600037070140B716014093E717021CCC5C4CD9
:1007700093E717005CCC5C4893E717005CC85C43C8
:100780001384418893E707305CC383A7064037078B
:1007900010FF7D17F98F3707B000D98F23A0F640DF
:1007A000B7070040239407021307B003DAB7239278
:1007B00007021967DAAF9A33856693870704558F66
:1007C0002390E7FE03D7C7FC136707102396E7FCC7
:1007D000370702405CD39387418D1CD78967938785
:1007E00007595CCFEF20F00223A4A1880D4523A078
:1007F0000186EF20007911E5713C89471CC06FF03C
:100800005F9523200400E5BFEFF21F94EF207000F6
:100810002A840D45EF20E076B707002003A70710D4
:10082000938707106304A70023A6818688C319E96C
:1008300083A7C186B307F44093B7270393C7170074
:10084000814429A885476310F50A83A4C18681479E
:10085000B304944093B4240393C4140013876186B3
:10086000142393F6F60F99C22300070083A641884C
:1008700013874188BDCB8947638CF60023A8D186B6
:10088000113C1387418889471CC385462382D18642
:10089000A5CC83A7018705462382C1861CC3854654
:1008A0006392D70285451145EF20206483A7C18854
:1008B000939627008D679387C744B6978843793C02
:1008C000138741881C438DE723A481882285353610
:1008D00003A781888567938777383307E44063F0FF
:1008E000E704E93231A88147A1BF8947E382F6FADC
:1008F0001C4305476388E70009476387E700F9D78A
:100900006FF03F852285D53C9387018698439306F7
:1009100030063307E44063F4E60080C3B93C228527
:100920008939F9BF0145828082807D558280EFF24E
:10093000BF811C417111CC81DC4393053100054618
:10094000829711016FF0FF80EFF21F807111930504
:1009500031004105EF20001A09E5888111016FF08F
:100960004FFF7D55E5BFEFF22FFE2E85B285EF20BC
:10097000C0076FF00FFE13F7F50FC54763EDE700F3
:100980008D679387875D0A073E9793F705700C4341
:10099000CD8F5CD5828093F6050C1306000CFD57B5
:1009A000E399C6FE9306700CE3E5E6FE93F7F503C4
:1009B0000D671307875B8A07BA979C430D67130778
:1009C000875D8A07BA9793F505709C43D1B713F7F3
:1009D000F50FC54763EDE7008D679387875D0A07CD
:1009E0003E9793F705700C43CD8F1CD5828093F60C
:1009F000050C1306000CFD57E399C6FE9306700C18
:100A0000E3E5E6FE93F7F5030D671307875B8A07B7
:100A1000BA979C430D671307875D8A07BA9793F5CA
:100A200005709C43D1B7EFF22FF29307803E1CC5AF
:100A30008D67938787621CC10CC92322050093052B
:100A4000600C2A840D3F9305500C22854937585479
:100A50001C546314F700FD575CD4FD571CD85CD8B8
:100A60006FF02FEFEFF24FEEB74501409385058011
:100A7000138581974D3F6FF0CFEDEFF2EFEC1C4502
:100A80002A8481CB0D46AA8582972324040023263D
:100A9000040022856FF0EFEBEFF20FEB31110A85C6
:100AA00002C002C202C402C602C8EF10201B1245D7
:100AB00051016FF00FEA1C4581CBEFF2EFE8AA85F8
:100AC0000D4682976FF0EFE88280FD152E951C2170
:100AD00099CB89477D5563E7B70086059387818366
:100AE000BE958A2182808D477D55E3EDB7FE860550
:100AF00093870184F5B79387F5FF0D47636EF70081
:100B0000EFF28FE451113EC02A84AE847D3F7D57C1
:100B100082476314E50001A001A09204938444037A
:100B2000A2949444138741833E97182385C69386E5
:100B30008184BE969422084C3AC4B6853EC236C023
:100B4000EF1000758246084C0546B685EF108053BD
:100B50002247924793962700A296D4423146636972
:100B6000D60A0D668A061306C664B2969442084CED
:100B70008286A2979C2393150701C18199CF1146C4
:100B8000EF104055084C216783574504D98F231235
:100B9000F5048545EF10804DA5A80546EF1080515E
:100BA000D5B70546BA853EC0EF10C05082471387BF
:100BB000C184BA97838707002285BE853EC031373E
:100BC00093150501084C0546C181EF10A04E084C55
:100BD000A166854503574504558F2312E504EF10A0
:100BE000E048984415C782470D47084CFD17FD544F
:100BF0006366F70093858184BE958421C204C18019
:100C0000A685EF10E068084C0546A685EF108047E2
:100C100031016FF00FD40546BA8549B71E21858B87
:100C2000E5FB85BFEFF24FD25C5D2A8491CF084D82
:100C30008545EF10E065084C85450546EF1080447A
:100C4000084C8545EF108042228585456D3522850B
:100C50008945553522858D45793D91452285613DF2
:100C60006FF02FCFEFF24FCE91472E85B285638381
:100C7000F60263E5D70081CE6FF0AFCDA147638E5A
:100C8000F600B147E39AF6FEEF106037F5B7EF10C4
:100C9000C01DDDB7EF100024C5B7EF10002DE9BF70
:100CA000EFF28FCA2E84611116A2B285228536C258
:100CB00032C0EF10204B024692466E2299E6228502
:100CC000EF10404421016FF0CFC891476396F600C2
:100CD0002285EF108044FDB7A14722856395F60079
:100CE000EF104045C5B7EF104046E9BFEFF2CFC562
:100CF000130141FD9387F5FF36C03EC232C48D47D4
:100D00009386F5FF2A842E87FD5463E6D7009387E8
:100D10004183B6978423394681451305E1013AC6DC
:100D2000EFF00FB8FD5702C802CA231C010032477A
:100D30006393F40001A0FC860C4C85E4DC59C207E7
:100D4000C183A2462311F1028547FC82B14763ECBF
:100D5000D702939726008D6693860668B6979C43C4
:100D6000828791476394F4009C5DD1BFA14763944F
:100D7000F400DC5DE9B7BC41D9B7231E0100A686AB
:100D800070082285C535924722478A07A297D8C3A3
:100D90000247FD57630FF7043A85EF10502463169E
:100DA000950C02458D649385844CEF103007A24763
:100DB0000D47DD176368F7000245EF103058814595
:100DC000EF20800302459385844CEF10D00B9247AF
:100DD000518105893E9408A029A80A0722971C433F
:100DE00089CB23200700A68670082285231E0100D8
:100DF000953D1301C1026FF0CFB5C147FC8641B7E5
:100E000093070002E5BF93070003CDBF93070006D9
:100E1000F5B793070007DDB793070005C5B793073C
:100E20000004E9BF8947FC81A686100822858D3D14
:100E300099BFA947CDBFA686100822859535924651
:100E40000D47FD576367D7009387C184B6978387A3
:100E50000700FD178A07A2973147D8C38947FC814D
:100E6000FC82A68610080C4CD1B701A0FD158D4759
:100E700063E6B7008A05AA95C84182800145828051
:100E8000EFF28FAC084D8545EF10E0206FF06FACAE
:100E90001C4D8A2305898280EFF20FAB2A84CD3F57
:100EA00005E5084C5E25858B95C301468545EF1009
:100EB000601D2285F137084C8545EF10603D084CD8
:100EC00005468545EF10001C6FF0AFA822854D3F09
:100ED000E5BFEFF26FA78547AA842E846301F6026F
:100EE00089476305F604814719C09307F4FF8C4CCA
:100EF000C207C183DEB5268545376FF08FA5EFF0B9
:100F0000BFB9B7450F0093850524EFF02FA7A28541
:100F1000EFF0CFA4935505019C4C13970501418335
:100F20009AB78505EFF08FA52A8475BFEFF0DFB67D
:100F3000A285EFF0AFA4F9BFEFF20FA1FD158D4729
:100F40005111AA847D5463E6B70093874183AE971D
:100F50008023884C36C232C0EF104033FD57024622
:100F600092466313F40001A0930715003EC0930757
:100F700010086382F60663EFD7029387F6FF3D47BA
:100F8000637AF708884C41679306F7FF5E35C2071E
:100F9000C1836395D7006313E6003E869147630AD9
:100FA000F40A63E6870845C08C4C2685F535310187
:100FB0006FF02F9A930720086381F6049307300897
:100FC000E392F6FC9C4CB285CA370505EFF00F9909
:100FD0009305400639A832C2EFF01FACB7450F00A9
:100FE00093850524EFF08F991246B285EFF00F97A5
:100FF0008245EFF0AF982A8671B732C4EFF0DFA9CF
:1010000022462AC20245B285EFF04F959247AA8543
:101010003E85C5B79C4CB28536C0CA370505EFF092
:10102000EF9382468545B395D500FD15D9B7A14705
:101030006307F402B147E319F4F693150601C18181
:10104000EF10000C95B793150601C181EF10800ACF
:10105000A1BF93150601C181EF10000AB1B7931526
:101060000601C181EF10800981B7B737014093872E
:1010700007C06308F500B70700406316F500054593
:1010800082800145828041657D158280EFF2CF8BA1
:101090002A84084DD93FAA8413058401EF10C0703B
:1010A0008A041385C18A2695232A040093044408E0
:1010B000232005001304440363878400C11426859C
:1010C000EFF07F9FD5BF6FF0CF88EFF2EF87711100
:1010D0002A84C1642E852EC0FD14413F82456313CE
:1010E000950001A01C4C91C301A093172500138506
:1010F000C18A3E95930744011CC1930700085CD444
:10110000930700041CD80CCC1305840140C8232E7F
:1011100004002320040223120402EF10806513054B
:101120004403EFF09F9513054404EFF01F9513055A
:101130004405EFF09F9413054406EFF01F94130548
:101140004407EFF09F93084C23200400232204005F
:10115000232404002326040023280400232E040053
:1011600004D08545EF007073084C9305C401EF006F
:10117000F04A11016FE0FFFDEFE21FFD232E050293
:1011800023260504232E050423260506232E050603
:10119000232C05001D3FB7E700E0214723A2E710FD
:1011A0001307000223A2E7101307000423A2E7108D
:1011B0006FE03FFAEFE25FF9184519E3EF101069AD
:1011C0005C4582976FE0FFF811E101A0EFE2DFF7E5
:1011D0002A8408418545EF10600C15C11C40DE27AC
:1011E000858B91CF2285EF10805808415C5D81C7C7
:1011F00013054503C13708408545EF10A00B6FE08C
:101200005FF503A5C18A19C111057D3F7300203028
:1012100011E101A01C41DA27098B11EBDA27118BB0
:1012200019E7DA27218B01E7DA27418B3DCFEFE27F
:10123000BFF12A8489453E85EF1040061C401DC140
:1012400089453E85EF10000785442285EF10205226
:10125000084192049384440326951C4591C3993F09
:101260006FE03FEF3E859145EF1040031C4019C5EC
:1012700091453E85EF1000048944C1BF3E85A145DC
:10128000EF10C0011C4019C5A1453E85EF1080023A
:101290008D4465BFC1453E85EF1040005DD50840D7
:1012A000C1459144EF1000014DB7828003A5C18A6A
:1012B00019C11105B13F73002030711122C0138490
:1012C000C18A484011C511050137484011058937C9
:1012D0000244110173002030EFE21FE72A84EF106F
:1012E000505348C41C402285DC4B8297635A05004A
:1012F000EF1030525C441D8D1C44E365F5FE7D55B6
:101300006FE03FE5EFE25FE46111AA8401442EC281
:1013100032C0630DC4002685C1376349050092457C
:101320000246B387850088A30504D5B7228521012D
:101330006FE03FE2EFE25FE15111014495C6B684F0
:10134000AA8701443E8532C42EC23EC07137634D28
:1013500005009245630AB50022468247330786009E
:1013600008A30504E39084FE228531016FE07FDE4F
:10137000EFE29FDD41113AC62EC032C236C49377E8
:10138000F50F45476361F7060D678A071307875D09
:10139000BA979C4313760570B364F60013D54400E6
:1013A0003D8969202A840DCD85450545EF00D0147F
:1013B000930710026399F400370530008545130543
:1013C0000540EF00A079854713F6F4003396C70077
:1013D0002247B247924682454206418222859D2697
:1013E00041016FE01FD71377050C9306000CFD54E5
:1013F000E316D7FA1307700CE362F7FA9377F50355
:101400000D671307875B8A07BA979C430D6713071D
:10141000875D8A07BA97904313750570B364C5005A
:10142000B5BFEFE27FD2112E6FE0BFD2EFE2DFD186
:1014300085476302F50219C589476305F502014531
:101440006FE03FD111458545EF00100B3715014086
:1014500013050580F5B741458545EF00F0093715BF
:101460000140F9BF130500028545EF00F00837156C
:10147000014013050540E9B7EFE21FCD8D65938567
:10148000C545EF1040203D819377F50125476373F3
:10149000F70001A00D651305456B3E9508216FE02F
:1014A0005FCBEFE27FCAB7270140938707406317FE
:1014B000F500854513050020EF00100403A5018108
:1014C0009317350163C707008D659385C545EF10F8
:1014D000E0146FE01FC8EFE23FC78145D52E6FE0F3
:1014E0005FC7EFE27FC60111AA84614681452800EB
:1014F000EFE01FBB939734012313010063D907006A
:101500008567850763E597006381F40801A08D6511
:101510009385C5452685EF1040142A842685A93F6A
:10152000AA8722853EC023A89180A53F3165EF00A0
:10153000A0710547230EE1002C0037070E0022851D
:101540003ACA02CC02C602C402C8252E85452285AD
:1015500023200400B52E824722859D4693F5F70F80
:101560000546592E85452285A52E8945228591213E
:101570006DDD7C442285C207C1837C83A93F22851F
:10158000F12C288305616FE0DFBC37240140A147BF
:101590001304044079B7EFE23FBB01118D642EC400
:1015A0009385844C32C636C82AC0EF10000BEFF08A
:1015B000DFAB931625001387C18A36971043138437
:1015C000C18A15E602459385844C3ACE36CCEF109D
:1015D000C0082ACA13054008EF107024D2452AC259
:1015E000EFF09FB972471246E2461C4390C33305A1
:1015F000D4001C4102459385844C8043EF10A00821
:101600003D819374F501A6852285EFF03F862AC2BD
:1016100095476308F50082461546A6852285EFF0BA
:10162000EFECA24509462285EFF0BF8AC24632465A
:10163000A6852285EFF05F90124795476305F70076
:101640002285EFF02FDE05616FE0BFB0EFE2DFAF84
:101650008D6651119385864C2AC0EF100000EFF083
:10166000DFA0131725009384C18ABA948C40138499
:10167000C18A02468DE58D669385864C32853AC4D3
:10168000EF00B07D2AC213054008EF1050199245B3
:101690002AC0EFF07FAE9C408246224794C3B30736
:1016A000E4009C43804309C82285EFF03F9E9305E8
:1016B00040082285EF10F01831016FE09FA903A5C3
:1016C000818B83A5C18B82808280EFE2FFA7C53F1B
:1016D0006FE03FA89387818B03A3070083A3470094
:1016E000130713003335670098C3B3067500D4C3DE
:1016F000E13FB7F700E023A2070073002030EFE2DC
:10170000BFA437F400E02322040023200400232494
:10171000040003A581819305803EEFE03FA67D157F
:1017200008C8BD471CC07D57B7E700E02386E740E7
:10173000056723A0E7106FE0DFA1EFE2FFA0C1374C
:101740006FE03FA1EFE25FA0130181FD2A8336C065
:10175000BE842317010002CC02CE02D002D2B28690
:10176000014405456388A60093071400858213F49D
:10177000F70FCDBF8D461A852ECA6C003AC436C805
:101780001AC27086C52C1243B7160140094522477C
:101790006308D3009386064001456313D3000D45CB
:1017A000A2853AC2B5298D66131624009386066C6D
:1017B000B29694421247280836CC854636D23ACEA5
:1017C00026D0052437070020931734001307C700DD
:1017D000BA9702479043FD55D8C337E700E0B307F7
:1017E000C7002380B7409357560093870704854668
:1017F0008A07B396C600BA9794C3130181026FE0BB
:101800005F95814705476307E5008507058193F7E5
:10181000F70FD5BF370700208E071307C700BA9709
:10182000DC4391C7EFE25F9282976FE09F928280E4
:10183000611122C226C00544A1442285012C19C58C
:1018400022852524131504014181653FFD140604FA
:10185000EDF412448244210173002030B727014087
:1018600093870740631EF500EFE21F8E8545130541
:101870000020C9218145130500206D296FE07F8D6F
:1018800082805C413707F1FF1307F7EF7D8FDC4162
:101890009441A207D58FD98F5CC11C4537F7F1FF62
:1018A0001307D77FD4457D8F9C49D58F94458606F5
:1018B000D58FD98F1CC55C55370710FF7D177D8FDD
:1018C000DC29FD1793F7F70FD207D98F5CD58280FB
:1018D0001C4589C593E717001CC58280F99BEDBFA5
:1018E0001C4591C537075000D98F1CC5828037072A
:1018F000B0FF7D17F98FD5BFA54763F8B7041387ED
:1019000065FF931717008322C500BA971D43331351
:10191000F3001343F3FF33735300B397F600B3E7B9
:1019200067005CC5994763E3C7047D1693172600DB
:101930003E965859FD47B397C70093C7F7FFF98FF5
:10194000B395C500DD8D4CD9828093971500032394
:101950000501AE971D473317F7001347F7FF33779D
:101960006700B397F6005D8F18C96DBFB14763E29A
:10197000C7026516931726003E961859FD47B39780
:10198000C70093C7F7FFF98FB395C500DD8D0CD95C
:1019900082804D161317260054553A96FD47B3978B
:1019A000C70093C7F7FFF58FB395C500DD8D4CD504
:1019B000828008416D8D3335A0008280138741817C
:1019C0001C439386C1A53E956369D500938601D4D7
:1019D00063E5A60008C33E858280FD57EDBF828087
:1019E00082805841032305004C4537060140930788
:1019F00006403E979346F3FFB1C583250640F58D1B
:101A00002320B640D043F18ED4C31443B3E666001E
:101A100014C3184190479346F7FF758E90C7D0477F
:101A2000F18ED4C7144541466399C6009447D98EB8
:101A300094C7D447558FD8C78280B6979443558FA3
:101A400098C382801C43F58F1CC38280B707014076
:101A50001387074083A70740584B698F09C77D8DBF
:101A60003335A000828001458280B707014023AA58
:101A7000A74082809C45611122C226C013F707014E
:101A800013F3F70001C7D8413363E30092211377C2
:101A9000F60F29C78323050001471304800293042E
:101AA00080048546B395E600B376B6006392D5020E
:101AB00093122700BD46B396560093C6F6FFB3F3C4
:101AC0007600B3125300B3E37200639787064CC9E4
:101AD0000507A146E317D7FC232075001307F00F75
:101AE0006378C70483234500A1461304800293044E
:101AF00080040547B312D700337756006394E2029F
:101B0000139726000117BD45B395E50093C5F5FF72
:101B1000B3F375003317E300B36377006392870272
:101B2000232A550085064147E395E6FC23227500EC
:101B30001244824421018280E39C97F80CC949BF7A
:101B4000E39297FE23285500F1BF08456D8D33358C
:101B5000A00082800CC982804CC98280370301407A
:101B6000032743009317350063D00702B707C0FF70
:101B7000F517F98F37070007D98FD9CD370700F050
:101B80007D17798DC98F49A8635D0500B707E0FF10
:101B9000ED17F98F37070007D98FBDCD06050581F1
:101BA000D5B7B7073000931605013376F500C1822B
:101BB0006313F602370600F97D16B377C7000327D3
:101BC0004300798E2322C300A1C955811317450014
:101BD0003395E60045BF9317B50063D407029357CA
:101BE000050113F6F7008D47B397C70093C7F7FFBA
:101BF000F98F37070007D98F85C113575501120791
:101C0000C1BF558112053395A6009347F5FFF98FA3
:101C100037070007D98FBDF5370701405CC38280C5
:101C200037070140144786058D47B397B70093C720
:101C3000F7FFF58F1CC71C47B315B500DD8D0CC72A
:101C400082807300203001A0B7160240DC42417749
:101C50001307F77FF98F5D8DC8C28280EFE2CFCE88
:101C6000371702405C4391462A84B18B6385D700C5
:101C7000A146638DD706B7376E01938707601CC0F6
:101C8000B7160240DC42918313F7F700B707002034
:101C900093870706BA978C23DC42184093F5F50F1B
:101CA00093F707083355B70081E73A85EFE00FCD8A
:101CB00048C008C448C4B7170240DC43AD83FD8B5D
:101CC00013D737008A07F18BD98F93F637010D4769
:101CD0006373D700D117370700201307C704BA97DB
:101CE0008C23EFE0AFC908C86FE0AFC65C43B7779D
:101CF000DC02938707C061B799C5371702401C4FB4
:101D00005D8D08CF8280B7170240984F1345F5FFCD
:101D1000798D88CF828099C5371702405C4F5D8DE1
:101D200048CF8280B7170240D84F1345F5FF798D11
:101D3000C8CF828099C5371702405C475D8D48C780
:101D40008280B7170240D8471345F5FF798DC8C781
:101D500082801E319206C207C183F99BC207C183EC
:101D60001EB11A2D1E31035385014207418333638F
:101D700066001377C7F0558E518FB7360140C20702
:101D80004207231C6500938606C0C1834183630616
:101D9000D500B70600406319D500F59BCD8F93E7BA
:101DA00017001AAD1EB18280D59BCDBF1E31220611
:101DB0004206C207C183BD9BC207C1831EB1035344
:101DC000850185679387F7CF1A31B3F7670003530F
:101DD00085014182B20633636600558ED18FB736D6
:101DE00001404207C207231C6500938606C0418359
:101DF000C1836306D500B7060040631DD500920578
:101E00001377F7FDD98DC205C18193E505011EAD9C
:101E10000EB182801377F7F5D98DC5BF1E213737F4
:101E20000140130707C0C207C1836306E5003707F7
:101E300000406316E500BA2193F7F7F8D98FFA212D
:101E400093F7F7CFC207C183D98F1EA1DE215EB5FC
:101E50009E211EB5B7370140938707C06314F50074
:101E60009C251EB985475EA982801E31922103D32D
:101E70002500C207C183F99BC207C1831EB11E3171
:101E800056211A2DC207C183420741831377C7F831
:101E9000518F9225F59BC20633666600D18F373687
:101EA0000140130606C0C1826310C502B225DD9B46
:101EB00003D3E500D18FD221ED9B93F6F6CFD18FDE
:101EC000D22533666600D18E56A11AADFA2158D9B3
:101ED0001EB182801E3165771307F7CFC207C18319
:101EE000BD9BC207C1831EB11E31562103D385009D
:101EF000C20713960601162DC18393F7F7FD758F60
:101F000096214182A206558FB62142074183B3E64E
:101F100066009206D58FB7360140C207938606C089
:101F2000C183631ED502B62593F7F7F703D3C50027
:101F30009206D58FD621C207C183920693F7F7FB8D
:101F4000D58FFD769386F63FF18EF225C207C183C9
:101F5000336666000A06D18E13960601418252A1AD
:101F60001AADFA2118DD1EB182801E31922103D3F1
:101F70008500C207C18393F7F7EFC207C1831EB183
:101F80001E3156215A2DC207C18342074183137760
:101F9000C7F8518FB22193F7F7DFC20633666600A8
:101FA0002206D18F13960701B7370140938707C0E8
:101FB000C1824182631FF502FD779387F77FF18F1E
:101FC000B22503D3C5002206D18FD221C207C18317
:101FD000220693F7F7BFD18F13960701F577FD1708
:101FE000FD8EFE254182B3E767009207DD8EC206B3
:101FF000C182FE2156A15AAD5CDD12B182801A3138
:10200000FD77FD17F98F1EB1035305025A215E2D8E
:10201000E5769386F6CFFD8E9E2113160701BA2131
:10202000A207DD8EF977FD17B3F7670003D38500AC
:10203000C2064182336767003207D98F37370140C4
:10204000C207130707C0C182C183631BE500717714
:102050007D17718FD2251A06518F13160701418201
:10206000FA2152A156AD38C11EB182801E2189C508
:1020700093E717001EA18280C207C183F99BC207A4
:10208000C183CDBF5E2501C6DD8D4EA5828093C57F
:10209000F5FFFD8DDDBF4EA982801E2189C593E726
:1020A00007081EA18280C207C18393F7F7F7C20712
:1020B000C183C5BF1A318547B397B70093C7F7FFF0
:1020C000F98F1EB11E31B315B600DD8DC205C18179
:1020D0000EB182801A319147B397B70093C7F7FFCB
:1020E000F98F1EB11E31B315B600DD8DC205C18159
:1020F0000EB182804CD982800CDD82804CDD8280E2
:102100002CC182801E2DC207C183CD9BC207C18313
:102110001EAD1E2DDD8D0EAD82801A2DFD779387AD
:10212000F73FF98F1EAD1E2DA205DD8DC205C181C1
:102130000EAD82805E2DC207C183CD9BC207C183D5
:102140005EAD5E2DDD8D4EAD82805A2DFD7793877D
:10215000F73FF98F5EAD5E2DA205DD8DC205C18111
:102160004EAD8280EFD25FFE9A212A84AE84BE21DA
:10217000D221962509EBBE85EFF0BFBDEE2022856A
:1021800051376FD01FFD91456319B700BE85EFF041
:10219000FFC1EE2022855137EDB72145EE20631AAD
:1021A000A7061A309206420741831377F7EF4207DA
:1021B00041831AB04A2C1A300353C40142054181AD
:1021C0001375C5F033636600498E558EB7360140EE
:1021D00042074206231E6400938606C04183418263
:1021E0006306D400B7060040631FD400A20713772C
:1021F000F7DFD98FC207C18393E7071052AC1EB037
:1022000022850D3FBDBFFD769386F65F758FD98F12
:10221000E5B70A307D777D17698F1AB04A2C0567BC
:102220001307F7CF03530402698F22064A2C420694
:102230004182B206518D558E598E37370140420387
:1022400042064AAC130707C01353030141826306D9
:10225000E400370700406313E40279777D17B20783
:102260003373E300B3E76700C207C1830567D98F03
:1022700052AC1EB02285EFF05FED21B72167130746
:10228000F7DF3373E300B3E76700CDB70A35828029
:1022900093C5F5FFC205C1810EA982801E294A257A
:1022A000ED8F4205418189C76D8D3335A000828055
:1022B0000145828093C5F5FFC205C1810EA98280C8
:1022C000EFD29FE81629F577FD17F58FF621DA256D
:1022D0002111D58F1EA95625FD779387379FF58F3E
:1022E000D6212A842EC0D58F9625D58FB625D58F99
:1022F0005EA55E29C207C18393F7F7CF5D8F5AA908
:102300004800EFF0BF95B7470140938707808245AB
:102310006312F406C2475A24139517003E954207EC
:102320000E0541873E958C41635807048605EFD022
:10233000FFE4930540062AC0EFD05FE48247931480
:102340004500930540063E85EFD01FE65E24C20798
:10235000C18763D507020E059305400613052503C3
:10236000EFD0DFE11D89C98CC204C18006A46101E0
:102370006FD03FDEB24745B78A0555BF12059305BA
:10238000400613052503EFD07FDF3D89E9BF91C5E6
:102390005E250967D98F5EA582805A25F977FD17DA
:1023A000F98FD5BF93F5F51F4EA182804A21137591
:1023B000F51F82805E2989C593E787005EA9828028
:1023C000C207C183DD9BC207C183CDBF0A216D8DCA
:1023D0003335A0008280B71702409843B706FFFC50
:1023E0001367170098C3D843758FD8C39843B706AF
:1023F000F7FEFD16758F98C39843B706FCFFFD16D0
:10240000758F98C3D44341777D17F98ED4C3B7062F
:102410009F0094C7B72602409042719A90C29042A2
:102420001366160090C2D443D4C3D443758FD8C367
:10243000D843B7060001D8C39843558F98C3984333
:1024400093166700E3DD06FED843B7160240719B82
:10245000D8C3D84313672700D8C32147DC42B18BC8
:10246000E39EE7FE8280FD577D576317F500014527
:1024700082806387A700B1059C41E39CE7FEC5BF4E
:1024800005458280EFD25FCC311102C402C602C87A
:10249000FD576313F50001A093D7854093F4F70728
:1024A0009377F500139727008D679387C774BA97C2
:1024B0009C4311813D892E843EC0EFE03FF72AC244
:1024C0008DC485450545EFF03F839387F4FF694749
:1024D000636DF7000D678A071307076EBA979C4371
:1024E000828785450545EFF06FE7935724401377C2
:1024F00034008D8B7DC73AC609476380E70E0D47D0
:10250000638FE70C05476388E70CC1473EC8EDA021
:102510008145C9BF8545370500100905E9B78545DF
:1025200037054010DDBF8145E5BF85453705008093
:10253000110555BF85453705208075B78545370599
:102540002080FDB78145E5BF370516008545130599
:10255000050451BF8545370516001305050861B709
:102560008545370516001305050CB5BF8145D5BF58
:1025700037051800854513050510B5B73705180050
:1025800085451305052085B78545370518001305D2
:10259000053091BF8145D5BF85452165A9B78145E6
:1025A000EDBF8545370520008DBF8145E5BF8545D9
:1025B00037052000B5BF8145E5BF854537052000BB
:1025C00069BF8145E5BF85453705300013050540E6
:1025D00019BF8145D5BFD14715BFE14705BFF147B9
:1025E00035B705476383E70299C789466381D702F8
:1025F0009307800221BF02C8824712452C007C84C9
:10260000EFF04FC751016FD0DFB4914701B711848C
:102610000D8893078004E31DE4FCCDBDFD577D5775
:10262000631DF50082806399A700EFD2FFB18C454E
:10263000EFF05FE56FD0FFB1B1059C41E395E7FE98
:1026400001A07D579C416394E7000145828063941B
:10265000A700C8418280B105F5B7FD576307F500B3
:10266000EFD29FAEF93F6FD0DFAE014582807D573C
:102670009C416394E7007D5582806394A700884560
:102680008280B105F5B7FD576307F500EFD2DFABE8
:10269000F93F6FD01FAC7D5582806305B50019C12D
:1026A00081E5AA852E8582808145EDBF01A001A02C
:1026B00001A001A001A001A001A001A001A001A012
:1026C00001A001A001A001A001A001A001A001A002
:1026D00001A001A001A001A001A001A001A001A0F2
:1026E00001A097E1FF1F9381E121138101F01715EC
:1026F00000001305E50F97E5FF1F9385A59013864E
:10270000818563FAC5008322050023A055001105C9
:102710009105E3EAC5FE138581859385C1A563779D
:10272000B500232005001105E36DB5FE93020008F6
:10273000739002308D427390428097E2FFFF938244
:10274000628C93E23200739052301715000013052B
:102750000592EF00F010EF00F014EFF0DFC79702E2
:1027600000009382C23C73901234730020307115C4
:102770008280EFD27F9D1841B7370140938707C011
:102780002A846318F7000565854513050580EFF079
:10279000AFD61840B70700406316F70085450545DA
:1027A000EFF06FD76FD0FF9AEFD21F9A1841B7376B
:1027B0000140938707C02A846318F70005658145A7
:1027C00013050580EFF04FD31840B707004063169C
:1027D000F70081450545EFF00FD46FD09F97EFD2FA
:1027E000BF968D659385854CEFF0FFE93D817D892E
:1027F0007D158D4763F3A70001A0938701853E9562
:1028000008216FD01F95EFD23F941301C1FDAA8418
:10281000084D32C60D662EC49305065A3ACA36C80C
:10282000EFF0BFE32AD0C84C8D6693858658EFF051
:10283000DFE22A8488508D6593850557EFF0FFE12C
:102840002AC0C8508D6593858555EFF01FE102576A
:102850000D668D662AC232CC36CE630B070ED04C85
:10286000FD566304D6006305040E9050FD566305C3
:10287000D6008247638E070CD050FD566305D60004
:1028800092476387070C3A85A285EFF01FE18245E6
:1028900088C0EFF09FE0924588C0EFF01FE088C04D
:1028A00045C93747014013070780631BE50085458D
:1028B0001165EFF06FC4130700022386040298D459
:1028C000E247884C9385075AEFF05FD519C4F24769
:1028D000C84C93858758EFF07FD48247814689CBD7
:1028E00088508D6593850557EFF05FD393060010F0
:1028F000924799CBC8508D6593E606209385855500
:1029000036C0EFF0BFD18246A24703C7C402884059
:102910009CC4B24713162700DEA4D2471387018C4C
:102920003297FEA4C2471386440010C33147C8C083
:102930009EA8BAA8D6A801E48545EFF0BFA7C84075
:1029400093858400EFF0DF97C8408545EFF03FA402
:10295000130141026FD0EFFFEFD20FFF8D6783A706
:10296000C75C0D671307875D8A07BA9780438D653B
:102970009385055A2285EFF05FCE05C1370500200B
:10298000F1659307050701478146014693850520B8
:102990001305050780CFEFF01FE76FD08FFBEFD255
:1029A000AFFA8347C5029305000213972700938768
:1029B000018CBA979C438843EFF05FA11335150053
:1029C0006FD02FF9EFD24FF88347C502930500046B
:1029D000139727009387018CBA979C438843EFF0A5
:1029E000FF9E133515006FD0CFF6EFD2EFF54111F2
:1029F00037040020AA842EC2EFE07FCC930704079F
:102A000083C7C7022AC41304040785E70347C40227
:102A10009387018C0A07BA979C43F1173EC09387AE
:102A2000018C3EC68247C1EF02C2124541016FD000
:102A30004FF28D6783A7C75C0D671307875D8A0711
:102A4000BA979C438D669385065A3E853EC0EFF04B
:102A5000DFC08D6671D9230604021387018C1C43E5
:102A600099EF8347C402850793F7F70F2306F40213
:102A7000FDD7EFF07FEE8347C402C9DB75B702458F
:102A80009385065AEFF07FBD0346C4021387018C7D
:102A900093172600BA979C438D669C43E393A7FC4B
:102AA00035D6C1BFEFE0BFC1A247B307F54033350C
:102AB000F500E39BA5F61307703EE367F7F60245C2
:102AC000EFF05FF065F19247A6973EC4A247E38E10
:102AD000F4F40245EFF01FEF6DFD8347C402324767
:102AE00085048A07BA979C4383C5F4FF8843EFF0B7
:102AF0007F8BE9BF11E57D5582807D556FD06FE5F5
:102B0000EFD28FE4AA842E84EFF07FE97DF583C7AE
:102B1000C402139727009387018CBA979C4388437C
:102B2000EFF0DF8808A00145D1BFEFD2EFE1EFE081
:102B30005F8FEFD05FBDEFD03FCDF5BF935745001E
:102B4000BD8B09476366F7020D671307875D8147F1
:102B50001376F50FC9460C436397C50013750570CE
:102B6000C98F3E85828085071107E396D7FED5BFC2
:102B7000C947C5BF9376850FAA87ADE61376F50FD3
:102B80000D671307875B0A063A96104213770570A4
:102B9000C545518F1376F70F63E7C50C0D67130713
:102BA000875D0A063A96084213F7F70F8DC293F62F
:102BB000070C1306000C130700706393C60293F60C
:102BC000F70F1306700C636DD60013F7F7038D66CD
:102BD0000A079386865B369718435D8F13770770D5
:102BE000598D82801377050C1306000C7D55E31A6E
:102BF000C7FE13F3F70F1307700C636D670013F72D
:102C0000F7030D661306865B0A07329710234547C4
:102C1000E376C7F81307700C6360670213F7F703D6
:102C20000D661306865B0A07329718431306000CDD
:102C30001377070C631FC7029305700C7D55E3E201
:102C400065FA13F6F7030D671307875B0A063A96D2
:102C5000104213F70770518F1376F70F1377F703AE
:102C600063F1C50282809375070C1305000C638421
:102C7000A5007D5582809305700CE3ECC5FE1377AB
:102C8000F7030D660A071306865B329718438D65B6
:102C90009385855D0A072E97084313F7F70F8DC2BA
:102CA00093F6070C9305000C13070070E39AB6F235
:102CB00093F6F70F9305700CE3E4D5F213F7F703DF
:102CC0000A07329711BF6387C502637DB600918DF5
:102CD0008547B397B700636EF50005053355B5001A
:102CE0007D15828001C90505B305B6403315B500D1
:102CF000C5BF01458280EFD22FC5EFF0BFE7FD577A
:102D0000630EF5001384C1810C40EFE08FFD03A634
:102D100041820C40EFF03FFB6FD0AFC30145EDBFE8
:102D2000EFD28FC29377F50F45476111636FF706B6
:102D30000D678A071307875DBA979C431374057064
:102D40005D8CFD576300F4062EC08D65AA849385C3
:102D5000854C2285EFF02FF11383C18235C993573B
:102D6000240013F7C7039387019CBA979043937588
:102D7000F400B356B600858A91E605473317B700CD
:102D8000518F98C383A601828325030002453686AE
:102D900036C2EFF05FF3924683A581822A862285B0
:102DA000EFE06FFF21016FD0CFBA1377050C9306C8
:102DB000000CE319D7FE1307700CE365F7FE937759
:102DC000F5030D678A071307875BBA979C438DB796
:102DD0008545268515201383C1828325030002457E
:102DE0002146EFF05FEE1307F00781456373A700FC
:102DF00085452685DD287DB79377F50F45476366C2
:102E0000F7080D678A071307875D3E971843937786
:102E10000570D98F7D576389E70CEFD2EFB213D4D9
:102E200027001387019C1374C4032297184393F45B
:102E3000F7005111335797009386019C2EC0058BE4
:102E400036C205CB8D653E859385854C3EC4EFF03B
:102E50008FE1A24709C53E85EFE04FFFA247124729
:102E60003A940547B3149700184093C4F4FFF98CC3
:102E700004C0824615476368D7060D671307C776F7
:102E800093952600BA95984102871377050C93060F
:102E9000000C631BD7041307700C6367F704937768
:102EA000F5030D671307875B8A07BA979C430D6785
:102EB0001307875D8A07BA979C4313750570C98FFE
:102EC00091BF91453E85EFF0EFDB31016FD06FA8E8
:102ED0008D45CDBFE145FDB793058002E5B781453E
:102EE000D5B79D45C5B701A08280EFD2EFA5137776
:102EF000F50FC547AE8663E6E7048D679387875D68
:102F00000A073E97184313750570B367E50013D79A
:102F100047003D8B094601456369E60037060020FE
:102F20000A0713060600329708438545BD8BB39701
:102F3000F50093950701C181B1C2EFE0BFC16FD029
:102F40004FA11376050C9305000CFD57E311B6FC59
:102F50001306700CE36DE6FA9377F5030D6713071C
:102F6000875B8A07BA979C430D671307875D8A07BB
:102F7000BA979C4313750570C98F51BFEFE0DFBD51
:102F80007DBFEFD26F9C9377F50F45476366F704DB
:102F90000D678A071307875DBA979C431375057001
:102FA000B365F50093D74500BD8B094701456369BB
:102FB000F700370700208A0713070700BA978843EE
:102FC0008547BD89B395B700C205C181EFE0FFB762
:102FD0003335A0006FD0EF971377050C9306000CE4
:102FE000FD55E311D7FC1307700CE36DF7FA9377E7
:102FF000F5030D671307875B8A07BA979C430D6734
:103000001307875D8A07BA978C4313750570C98DBE
:1030100051BFEFD26F93EFE04FEB6FD08F93511111
:1030200022C206C42A8411E105442285FD2011E54F
:10303000112811E105200295CDBFA24012443101B3
:10304000828001A89387418C88438280511106C4F5
:103050001120C9A85111194506C4E12C05456D2E52
:10306000AA8581460146014509A65111970700002E
:103070009387077822C217040000130464771D8C1D
:1030800026C006C40984BE8419E41244A2408244C6
:1030900031016FE0DF947D1493172400A6979C43C1
:1030A0008297DDB7511122C2970700009387C7733B
:1030B00017040000130444731D8C26C006C4098441
:1030C000814463968402EFE0BF91970700009387E5
:1030D000A771170400001304A4711D8C0984814496
:1030E00063928402A2401244824431018280139789
:1030F00024003E97184385040297970700009387A2
:10310000A76EC1B7139724003E9718438504029712
:10311000970700009387476DE1B793870183AA85DE
:10312000884345A893870183AA85884309A0CDC118
:1031300083A7C5FF511122C206C426C01384C5FF50
:1031400063D307003E94AA84552C9387818C9C43BB
:1031500099EB2322040023A4818C1244A2402685EB
:103160008244310169AC637EF40014403307D4001B
:103170006396E7009843DC43369718C05CC0E1BF14
:10318000BA87D84319C3E37DE4FE94433386D7005E
:10319000631F86001040B29694C33386D700E31EA7
:1031A000C7FA10435843B29694C3D8C37DB763752A
:1031B000C400B1479CC055B71040B306C4006316A5
:1031C000D70014435843B29614C058C0C0C371B757
:1031D0008280411126C293843500F19806C622C42C
:1031E000A104B14763F5F404B14463E4B4042AC014
:1031F00031241387818C14438247368439E0138746
:10320000C18C184301EB3E8581453EC0692823A649
:10321000A18C82473E85A6853EC071207D5782479E
:103220006314E506314798C33E85D12A29A0E3DE21
:1032300004FAB1471CC10145B24022449244410105
:1032400082801840058F634E07022D466376E600A4
:1032500018C03A9404C031A058406392860223A457
:10326000E18C3E85692A1305B40013074400619977
:10327000B307E540F1D33E94098F18C075BFD8C29B
:10328000CDB7A28640409DBF130435007198E3037B
:1032900085FCB305A4403E853EC031207D57824762
:1032A000E31AE5FA41B7511122C22A842E8523ACD4
:1032B00001A406C4EFE08FF0FD576317F500938774
:1032C00081A59C4391C31CC0A2401244310182805D
:1032D000FD4763F6B700D9471CC17D5582807C410C
:1032E000411122C406C62E862A8491C71397250051
:1032F000BA97984319EB228532C0BD20AA85228552
:1033000022440246B24041011DA88546014563089A
:10331000D700FD566319D700D9471CC00545B240F8
:103320002244410182802E8523A007000297014597
:10333000FDB793870183AA8588436FF07FF9511108
:1033400022C22A842E85B28523AC01A406C47D281E
:10335000FD576317F500938781A59C4391C31CC05B
:10336000A24012443101828061A89387018D9C4361
:10337000AA8399EF1387C19C23A8E18C17D5FFFF7F
:10338000130545C8BA8709C51C4123AAF1A4BA8709
:10339000D8437D437D556346E304638D030203A355
:1033A000870863000304931227009A9223A0C200A7
:1033B0000325031005463316E600518D2320A31084
:1033C00023A0D20889466397D30083264310558EE5
:1033D0002322C310930617000A07D4C3BA978CC7D9
:1033E0000145828097D7FFFF9387C7C199C717050B
:1033F00000001305C5C76FF0BFC68280828082803F
:103400009307800523ACF1A47D5582809307800546
:1034100023ACF1A47D55828001A00000DC000000F7
:103420000000000028000000DC0000000000000098
:10343000000000007F0000007F000000000000008E
:1034400028000000FF00000000000000190000003C
:10345000320000004B000000640000000200000089
:103460000024014000000000010000000024014091
:103470000080000014000000002401400000010052
:103480002200000000240140008001002300000011
:10349000002401400000020025000000002401403B
:1034A000008002002600000000240140000003000C
:1034B000240000000024014000800300FFFFFFFF04
:1034C0000000000000000000240000000000004098
:1034D0000B91000023000000000000400B110100D0
:1034E00010000000000000400B91010027000000C8
:1034F000000000400B11020022000000002C0140DF
:103500000B8D000001000000002C01400B0D01009C
:1035100013000000002C01400B8D0100140000007E
:10352000002C01400B0D020020000000002C014087
:103530000B8D000002000000002C01400B0D01006B
:1035400021000000002C01400B8D0100FFFFFFFF58
:1035500000000000000000002300000000380140CF
:1035600018000000FFFFFFFF000000000000000047
:1035700012000000003801400B000000FFFFFFFFB9
:10358000000000000000000026000000003801409C
:1035900018000000FFFFFFFF000000000000000017
:1035A00025000000003801400B000000FFFFFFFF76
:1035B000000000000000000001000000000000000A
:1035C000060000000C0000000D0000000F000000CD
:1035D000100000000E0000000100000002000000CA
:1035E0001000000011000000120000001300000095
:1035F0001400000015000000160000001700000075
:103600002000000021000000220000002300000034
:103610002400000025000000260000002700000014
:1036200000000000000000002E09000066090000F4
:1036300024090000280900002A09000048090000A8
:103640002A09000004130000341300001C0C0000C1
:103650001C0C0000720B0000720B0000720B0000CB
:10366000720B0000720B0000720B0000720B000066
:10367000160C0000160C0000160C0000A20B000037
:103680007A0D0000DA0D0000FA0D0000000E0000B7
:10369000060E00000C0E0000120E0000180E0000B6
:1036A0001E0E0000280E0000240E0000320E000046
:1036B000360E000000010203040506070809000099
:1036C00001000000020000000400000008000000EB
:1036D00010000000200000004000000080000000FA
:1036E000E224000010250000142500001E25000023
:1036F000262500002A250000342500003C25000076
:1037000044250000482500005425000060250000E5
:103710006C250000702500007C2500008825000035
:1037200094250000982500009E250000A225000099
:10373000AA250000AE250000B6250000BA2500002D
:10374000C2250000C6250000D225000001000000AF
:10375000020000000400000008000000100000004B
:10376000200000004000000080000000C22E000089
:10377000D02E0000D42E0000D82E0000DE2E000037
:10378000E22E000000000000000000000000000029
:103790000000000000000000000000000000000029
:1037A0000000000000000000000000000000000019
:1037B0000000000000000000000000000000000009
:1037C00000000000000000000000000000000000F9
:1037D00000000000000000000000000000000000E9
:0437E00000000000E5
:0837E400E4330000640A000058
:1037EC0000080140001001400014014014000000CA
:1037FC000000000014000000000000001400000095
:10380C000000000014000000000000001400000084
:10381C000000000014000000000000001400000074
:10382C000000000014000000000000000204060864
:10383C0004080C1008101820102030402040608024
:10384C000102030405060708010203040506070824
:10385C00000000000000000000000000000000005C
:10386C000000000000000000FFFFFFFFFFFFFFFF54
:10387C00FFFFFFFFFFFFFFFF000000000100000043
:10388C0000000000A4370000C4370000843700009B
:10389C00000000000000000000000000000000001C
:1038AC00000000000000000000000000000000000C
:1038BC0000000000000000000000000000000000FC
:1038CC0000000000000000000000000000000000EC
:1038DC0000000000000000000000000000000000DC
:1038EC0001000000010000000100000001000000C8
:1038FC00FFFFFFFF5C030020006CDC020A000000ED
:10390C000C0000000A000000E80300000C0000009E
:10391C00A00000200004080C04004000000400007B
:10392C000100100000010010020408100201040341
:08393C000004080C000000006B
:00000001FF
