:100000006F10904D00000000201700002417000022
:1000100000000000000000000000000000000000E0
:1000200000000000000000000000000000000000D0
:10003000BA11000000000000A81C00000000000031
:10004000AA1C0000AC1C0000AE1C0000B01C00008C
:1000500016130000B41C0000B61C0000B81C000001
:10006000BA1C0000BC1C0000BE1C0000C01C00002C
:10007000C21C0000C41C0000C61C0000C81C0000FC
:10008000CA1C0000CC1C0000CE1C0000A00D00000B
:10009000D21C00004A0E0000580E000000000000B4
:1000A0003D432A876373C3029377F700BDEFADE545
:1000B000937606FF3D8ABA960CC34CC30CC74CC757
:1000C0004107E36BD7FE11E28280B306C3408A0684
:1000D0009702000096966780A6002307B700A30644
:1000E000B7002306B700A305B7002305B700A30494
:1000F000B7002304B700A303B7002303B700A3028C
:10010000B7002302B700A301B7002301B700A30083
:10011000B7002300B700828093F5F50F9396850012
:10012000D58D93960501D58D61B7939627009702DB
:10013000000096968682E78086FA9680C1171D8F0A
:100140003E96E374C3F8A5B7511126C022C206C477
:10015000828282441244A240310182802A86014573
:1001600093F6150091C2329585810606F5F98280D5
:1001700000000000634E050263C305042E86AA85B5
:100180007D5515C285466378B6006356C0000606E5
:100190008606E36CB6FE014563E4C500918D558D7E
:1001A00085820582F5FA82808682C93F2E85828209
:1001B0003305A04063D70500B305B040C1B7B30510
:1001C000B0408682653F3305A0408282868263C745
:1001D0000500634905005D372E858282B305B04076
:1001E000E35B05FE3305A040513F3305B0408282FA
:1001F0000000EFF27FF5130181FD1383018A1304E0
:10020000B1011305C3006198138641891303C30329
:100210009385018A93860182930745FFB28203C7C3
:1002200002009107850293536700B69383C30300CE
:10023000238E77FE9353474093F33300B69383C3E3
:100240000300A38E77FE9353274093F33300B693B6
:100250000D8B83C3030036971823238F77FEA38F5C
:10026000E7FEE39EA7FA1385C7000D06E316A3FA7F
:100270008147B7360140130600039A26098B75DFC4
:100280003387F50018238507DAA6E398C7FE3737CA
:1002900001401E2793F70708EDFFB7F600E09046F0
:1002A0008147814510C45CC4844A1306B00381466B
:1002B00085042685EF2050261306803E8146EF20D8
:1002C000805618445C442AC818C05CC02E838147FD
:1002D0000147B7F600E0944602C636C42246B2464D
:1002E00010C454C41040544008444C4463E9D5043D
:1002F0006394B6006365C50410445444084032C09A
:1003000036C282464C40B382A64033B6560092466F
:100310003385B640118DBE92B3B6F20010442A97D1
:100320003697544410C0968754C0E36467FA631547
:10033000E300C246E3EFD2F81301810219BD084081
:100340004C401044544432C036C28246B383A64067
:1003500033B676009246B382930033B572008D8E29
:10036000918E36954DBF138741831E238507C207A3
:10037000C1831EA38280138741833E238507C20762
:10038000C1833EA38280EFF23FDC89451545EF1023
:10039000707089451305300CEF10D06F8945130537
:1003A000100CEF10306F81451305000CEF10906EAC
:1003B000371602401C4E856513871582D98F1CCED7
:1003C000B716014083A70640370710F07D17F98F55
:1003D0003707B00BD98F23A0F640370701405C43A5
:1003E0001305F077216393E707045CC337370140B7
:1003F000231407C22316A7C2231207C213058006BF
:10040000231CA7C0231EA7C0035507C2C10513653F
:1004100015012310A7C2232A07C2232C07C20355A4
:1004200047C4336565002312A7C4835707C013056B
:10043000300C93E717082310F7C01C4EDD8D0CCE4F
:100440009C42370600F17D16F18F3706000BD18FE5
:100450009CC2F1471EA3231207001E23370600008B
:10046000814693E707041EA31306663621479305CA
:100470008004EF00D029370600002147814613068B
:100480006637930580041305100CEF005028A38DE8
:100490000182238D0182EF10107823A4A18455B925
:1004A000EFF29FCA6111EF10107783C7B183054641
:1004B0002A84638BC71E91C709476386E7582101C9
:1004C00049B99385A18394219387A1833EC0638614
:1004D000C618B5CE8947E394F6FE83A7818433041A
:1004E000F5409307703EE3FC87FC1387B183F32547
:1004F000003093F775FF73900730938741838A2309
:10050000420541817390053073230030937573FF6A
:1005100073900530AE23C205C18173100330B73725
:10052000014023AA07C223AC07C20D439387E1848D
:100530006372A316637EB31494A383C6818381C6BA
:100540009C23639C071489471CA38D47A5A803A57A
:100550008184930520033305A4400D311375F50FF5
:100560009307700263F3A706914681441305000CBC
:1005700036C2EF10D04FAA940945EF10906A924608
:1005800013878184FD16FDF293D72400C207C1832F
:100590001306A0238D46636BF600130620178946C9
:1005A0006366F60093B7970C93C61700238CD1822D
:1005B000B73701409306F07723AAD7C223ACD7C23E
:1005C00000C3854702471CA3DDBDB7070020938702
:1005D00017109823E305A7EE9316150088A31317A9
:1005E00035003695938741890E051377F70F1375FC
:1005F000F50F9386C700130640059305900A7553BF
:10060000F9526366E6029343F5FF88A3A38077005F
:100610002381070013070704130505FC8D071377D3
:10062000F70F1375F50FE39ED7FCE13649BD63ED77
:10063000E500B383A24023807700A38007009303E3
:10064000150023817700F9B793032500A380770075
:1006500023800700B303A340EDB7938781849843B9
:100660009306301F3307E540E3FBE6E4F326003052
:1006700013F776FF731007301387418323100700A9
:10068000231107007390063088C389479CA105BDDC
:1006900090A365B5238007004DB585471CA3370798
:1006A00000202300F71055B59387C1859843B70400
:1006B0000020938404106301E51088C31545EF10F2
:1006C000904C83C64180138741801375F50F938743
:1006D00091856398A626942375466364D6008506A3
:1006E00094A3942308A3B707002075479387271086
:1006F0006373D70088A390233707002013073710B0
:1007000093870186631206240C2385466396D500E1
:1007100023A281862384018610A315EA138781868C
:10072000142395E683A641861306803EB306D44083
:10073000637FD600854614A3A38601842380070027
:1007400037370140232A07C2232C07C294A09023E5
:1007500025C603A7C1869306C0123307E44063FD94
:10076000E60405479386D1846316E6209822130594
:10077000F07705070D8B98A2938641823697182350
:100780009306300663E0E602014509CF13154700E2
:10079000198D1E0593054006198DCD324205418104
:1007A0009387018637370140232AA7C2232CA7C28B
:1007B000054798A0238007009387C182984393063A
:1007C000700C3307E44063FBE6061305000C80C39E
:1007D000EF10F0299386818598229387018513165F
:1007E00017003E9605070AA20D8B98A28A23BA230A
:1007F000B7350B00938585713A95DA23FE233A9538
:100800003E950981A13AB165938505C0853A83C5B6
:100810008183AD328567938687BB1387018463E646
:10082000A6162300070018239306A004938791833C
:1008300063F8E618114798A385479CA09387C18366
:1008400098431306F07C3307E44093860183637C6E
:10085000E61880C373250030937775FF73900730D7
:10086000138741831E23322323100700939507012A
:100870004206C1814182231107007310053093970E
:1008800045008D8F83C5E184C2070947C183639901
:10089000E50013174600118F42074183BA978583FD
:1008A0002394F18203D5818280C2238004009307C0
:1008B000007D63FAA71695679387F7E163EAA716A9
:1008C0008D67938777AF63EBA712130505839317A3
:1008D00085008965938585323385A7404530137738
:1008E000F50F1346F7FF1376F60F014503C3918307
:1008F000938741898146938441899385918391426D
:1009000063FC661298A388B3B0A3850693F6F60F2E
:100910008D07E39756FE03C70184A547E3E7E7D0B9
:1009200098218547E313F7D09305A00F2285EFF0B8
:10093000FF840589E30B05CE239004002381040086
:10094000EDB12380070071BB8546E317D6DC142385
:10095000E39406DC83A641869305201CB306D440AD
:100960009386E6FC63E5D5009423850694A323A62D
:1009700081865DB3114798A2373701409306F0771F
:10098000232AD7C2232CD7C225B59387770663F6CF
:10099000A700930740061CA379B593171500AA97E3
:1009A0008E07AA973775FBFF8A07130505C23E9588
:1009B0009305004BEFF08FFC1387018408A3A5B5C6
:1009C0009306100363F4E6000D47B5B5E14663F402
:1009D000E60009478DB5914663F4E6000547A1BDE1
:1009E0002380070091BD9C20E39E07EA9C421307E9
:1009F0003006B307F440E367F7EAD1B4F57793879D
:100A000087503E9593178500896593858532338598
:100A1000A740EFF0AFF61375F50F1347F5FF137707
:100A2000F70F0146E1B51306F00F014501477DBD03
:100A300001461305F00FDDBF23800700A3800700E8
:100A400023810700D9B593874184984393063006E4
:100A50003307E540E3F5E6A688C39387C18498236E
:100A60009346170094A3930700F811C3814713F727
:100A7000F70F938741899386C7002380070098B3B7
:100A8000238107008D07E39AF6FE45B60145828073
:100A900082807D558280EFF22FEB1C417111CC8159
:100AA000DC43930531000546829711016FF06FEA30
:100AB000EFF28FE97111930531004105EF10805E6F
:100AC00009E5888111016FF0CFE87D55E5BFEFF2B0
:100AD000AFE72E85B285EF10A04C6FF08FE713F7CC
:100AE000F50FC54763EDE7008D67938787F10A0728
:100AF0003E9793F705700C43CD8F5CD5828093F6BB
:100B0000050C1306000CFD57E399C6FE9306700C06
:100B1000E3E5E6FE93F7F5030D67130787EF8A0712
:100B2000BA979C430D67130787F18A07BA9793F525
:100B300005709C43D1B713F7F50FC54763EDE70088
:100B40008D67938787F10A073E9793F705700C43EB
:100B5000CD8F1CD5828093F6050C1306000CFD5733
:100B6000E399C6FE9306700CE3E5E6FE93F7F50302
:100B70000D67130787EF8A07BA979C430D67130722
:100B800087F18A07BA9793F505709C43D1B7EFF2C6
:100B9000AFDB9307803E1CC58D67938787F61CC12A
:100BA0000CC9232205009305600C2A840D3F930590
:100BB000500C2285493758541C546314F700FD57D4
:100BC0005CD4FD571CD85CD86FF0AFD8EFF2CFD70C
:100BD000B7450140938505801385018D4D3F6FF02A
:100BE0004FD7EFF26FD61C452A8481CB0D46AA85DC
:100BF0008297232404002326040022856FF06FD5FA
:100C00001C4581CBEFF24FD4AA850D4682976FF039
:100C10004FD48280B7370140938707C06308F5003F
:100C2000B70700406316F5000545828001458280C4
:100C300041657D158280EFF22FD12A84084DD93F7E
:100C4000AA8413058401EF1080158A041385018797
:100C50002695232A04009304440823200500130446
:100C6000440363868400C1142685593FDDBF6FF0BD
:100C70004FCEEFF26FCD71112A84C1642E852EC044
:100C8000FD14493F82456313950001A01C4C91C39C
:100C900001A093172500138501873E959307440112
:100CA0001CC1930700085CD4930700041CD80CCC2B
:100CB0001305840140C8232E0400232004022312BC
:100CC0000402EF10600A13054403213F1305440496
:100CD000093F130544053137130544061937130539
:100CE00044070137084C2320040023220400232456
:100CF00004002326040023280400232E040004D02B
:100D00008545EF00D037084C9305C401EF00503201
:100D100011016FF00FC4EFF22FC3232E050223261B
:100D20000504232E050423260506232E0506232C61
:100D300005008137B7E700E0214723A2E71013073A
:100D4000000223A2E7101307000423A2E7106FF0AC
:100D50004FC0EFF26FBF184519E3EF1080715C458B
:100D600082976FF00FBF11E101A0EFF2EFBD2A846F
:100D700008418545EF00503215C11C40DE27858BA8
:100D800091CF2285EF00107E08415C5D81C713057D
:100D90004503C13708408545EF0090316FF06FBBC8
:100DA00003A5018719C111057D3F7300203011E1B2
:100DB00001A01C41DA27098B11EBDA27118B19E707
:100DC000DA27218B01E7DA27418B3DCFEFF2CFB74E
:100DD0002A8489453E85EF00302C1C401DC1894581
:100DE0003E85EF00F02C85442285EF00B077084166
:100DF00092049384440326951C4591C3993F6FF058
:100E00004FB53E859145EF0030291C4019C59145ED
:100E10003E85EF00F0298944C1BF3E85A145EF0022
:100E2000B0271C4019C5A1453E85EF0070288D44B0
:100E300065BFC1453E85EF0030265DD50840C14500
:100E40009144EF00F0264DB7828003A5018719C1B8
:100E50001105B13F73002030711122C01384018746
:100E6000484011C511050137484011058937024432
:100E7000110173002030EFF22FAD2A84EF10A0593A
:100E800048C41C402285DC4B8297635A0500EF1052
:100E900080585C441D8D1C44E365F5FE7D556FF064
:100EA0004FABEFF26FAA6111AA8401442EC232C087
:100EB000630DC4002685C13763490500924502468B
:100EC000B387850088A30504D5B7228521016FF07B
:100ED0004FA8EFF26FA75111014495C6B684AA87B7
:100EE00001443E8532C42EC23EC07137634D0500B9
:100EF0009245630AB500224682473307860008A35D
:100F00000504E39084FE228531016FF08FA4EFF297
:100F1000AFA341113AC62EC032C236C49377F50F43
:100F200045476361F7060D678A07130787F1BA978C
:100F30009C4313760570B364F60013D544003D89D5
:100F400069202A840DCD85450545EF00D00893071B
:100F500010026399F40037053000854513050540FC
:100F6000EF00A06D854713F6F4003396C7002247C3
:100F7000B247924682454206418222857D24410144
:100F80006FF02F9D1377050C9306000CFD54E316AC
:100F9000D7FA1307700CE362F7FA9377F5030D673E
:100FA000130787EF8A07BA979C430D67130787F1EA
:100FB0008A07BA97904313750570B364C500B5BF2F
:100FC000EFF28F98B12C6FF0CF98EFF2EF97854743
:100FD0006302F50219C589476305F50201456FF003
:100FE0004F9711458545EF00007F371501401305E8
:100FF0000580F5B741458545EF00E07D3715014097
:10100000F9BF130500028545EF00E07C371501406C
:1010100013050540E9B7EFF22F938D659385C5D988
:10102000EF00D0453D819377F50125476373F700C5
:1010300001A00D651305C5F83E9508216FF06F916D
:10104000EFF28F90B7270140938707406317F500B1
:10105000854513050020EF00007803A581809317D4
:10106000350163C707008D659385C5D9EF00903AB8
:101070006FF02F8EEFF24F8D8145352E6FF06F8D13
:10108000EFF28F8C0111AA84614681452800EFF0B0
:101090002F81939734012313010063D907008567DB
:1010A000850763E597006380F40801A08D6593854B
:1010B000C5D92685EF00D0392A842685A93FAA877D
:1010C00022853EC023A49180A53F3165A92D054707
:1010D000230EE1002C0037070E0022853ACA02CC0D
:1010E00002C602C402C84924854522852320040083
:1010F000D924824722859D4693F5F70F0546C524DE
:1011000085452285C9248945228579266DDD7C4463
:101110002285C207C1837C83B13F22851D24288399
:1011200005616FF00F8337240140A1471304044089
:1011300041BFEFF26F818D665111938586E02AC021
:10114000EF001031EFF01FAD1317250093840187D6
:10115000BA948C401384018702468DE58D66938591
:1011600086E032853AC4EF00B02E2AC2130540084B
:10117000EF10402D92452AC0EFF0FFB99C40824607
:10118000224794C3B307E4009C43804309C82285E7
:10119000EFF07FAA930540082285EF10E02C310183
:1011A0006FE03FFB03A5818783A5C1878280828092
:1011B000EFE29FF9C53F6FE0DFF99387818703A3D3
:1011C000070083A34700130713003335670098C354
:1011D000B3067500D4C3E13FB7F700E023A20700D0
:1011E00073002030EFE25FF637F400E023220400C2
:1011F000232004002324040003A501819305803EDD
:10120000EFE0DFF77D1508C8BD471CC07D57B7E785
:1012100000E02386E740056723A0E7106FE07FF337
:10122000EFE29FF2C1376FE0DFF2EFE2FFF113016F
:1012300081FD2A8336C0BE842317010002CC02CE72
:1012400002D002D2B286014405456388A600930706
:101250001400858213F4F70FCDBF8D461A852ECA70
:101260006C003AC436C81AC27086C52C1243B71631
:101270000140094522476308D30093860640014593
:101280006313D3000D45A2853AC295298D661316C6
:101290002400938686F9B29694421247280836CCE9
:1012A000854636D23ACE26D005243707002093173C
:1012B00034001307C700BA9702479043FD55D8C3BF
:1012C00037E700E0B307C7002380B74093575600C5
:1012D0009387070485468A07B396C600BA9794C3D6
:1012E000130181026FE0FFE6814705476307E500D0
:1012F0008507058193F7F70FD5BF370700208E07C5
:101300001307C700BA97DC4391C7EFE2FFE3829768
:101310006FE03FE48280611122C226C00544A144EF
:101320002285012C19C5228525241315040141812C
:10133000653FFD140604EDF412448244210173005C
:101340002030B727014093870740631EF500EFE286
:10135000BFDF8545130500206D2981451305002059
:101360004D296FE01FDF82805C413707F1FF1307D3
:10137000F7EF7D8FDC419441A207D58FD98F5CC1F7
:101380001C4537F7F1FF1307D77FD4457D8F9C4964
:10139000D58F94458606D58FD98F1CC55C553707E8
:1013A00010FF7D177D8FDC29FD1793F7F70FD2070C
:1013B000D98F5CD582801C4589C593E717001CC571
:1013C0008280F99BEDBF1C4591C537075000D98F2E
:1013D0001CC582803707B0FF7D17F98FD5BFA547A1
:1013E00063F8B704138765FF931717008322C500BE
:1013F000BA971D433313F3001343F3FF33735300C2
:10140000B397F600B3E767005CC5994763E3C70489
:101410007D16931726003E965859FD47B397C7008F
:1014200093C7F7FFF98FB395C500DD8D4CD9828046
:101430009397150003230501AE971D473317F70057
:101440001347F7FF33776700B397F6005D8F18C92E
:101450006DBFB14763E2C7026516931726003E963B
:101460001859FD47B397C70093C7F7FFF98FB39596
:10147000C500DD8D0CD982804D16131726005455FA
:101480003A96FD47B397C70093C7F7FFF58FB3951B
:10149000C500DD8D4CD5828008416D8D3335A000AF
:1014A00082801387C1801C439386419B3E9563696C
:1014B000D500938601D463E5A60008C33E858280EB
:1014C000FD57EDBF828082805841032305004C45C3
:1014D00037060140930706403E979346F3FFB1C598
:1014E00083250640F58D2320B640D043F18ED4C32A
:1014F0001443B3E6660014C3184190479346F7FFC0
:10150000758E90C7D047F18ED4C714454146639974
:10151000C6009447D98E94C7D447558FD8C78280C8
:10152000B6979443558F98C382801C43F58F1CC394
:101530008280B70701401387074083A70740584BB5
:10154000698F09C77D8D3335A00082800145828077
:10155000B707014023AAA74082809C45611122C29F
:1015600026C013F7070113F3F70001C7D84133630F
:10157000E30092211377F60F29C783230500014763
:1015800013048002930480048546B395E600B37685
:10159000B6006392D50293122700BD46B39656005B
:1015A00093C6F6FFB3F37600B3125300B3E37200B1
:1015B000639787064CC90507A146E317D7FC23208C
:1015C00075001307F00F6378C70483234500A14615
:1015D00013048002930480040547B312D7003377C5
:1015E00056006394E202139726000117BD45B39598
:1015F000E50093C5F5FFB3F375003317E300B3635C
:10160000770063928702232A550085064147E395B8
:10161000E6FC232275001244824421018280E39C6F
:1016200097F80CC949BFE39297FE23285500F1BFF4
:1016300008456D8D3335A0008280370301400327B4
:1016400043009317350063D00702B707C0FFF517B3
:10165000F98F37070007D98FD9CD370700F07D17ED
:10166000798DC98F49A8635D0500B707E0FFED17C5
:10167000F98F37070007D98FBDCD06050581D5B78E
:10168000B7073000931605013376F500C182631366
:10169000F602370600F97D16B377C700032743002B
:1016A000798E2322C300A1C95581131745003395B4
:1016B000E60045BF9317B50063D4070293570501B1
:1016C00013F6F7008D47B397C70093C7F7FFF98F5D
:1016D00037070007D98F85C1135755011207C1BFBE
:1016E000558112053395A6009347F5FFF98F37070B
:1016F0000007D98FBDF5370701405CC382803707EB
:101700000140144786058D47B397B70093C7F7FF8D
:10171000F58F1CC71C47B315B500DD8D0CC7828043
:101720007300203001A0B7160240DC424177130756
:10173000F77FF98F5D8DC8C28280EFE2FFA0371777
:1017400002405C4391462A84B18B6385D700A14651
:10175000638DD706B7376E01938707601CC0B71635
:101760000240DC42918313F7F700B707002093870C
:101770000706BA978C23DC42184093F5F50F93F7D0
:1017800007083355B70081E73A85EFE03F9F48C02F
:1017900008C448C4B7170240DC43AD83FD8B13D7A0
:1017A00037008A07F18BD98F93F637010D476373A2
:1017B000D700D117370700201307C704BA978C2327
:1017C000EFE0DF9B08C86FE0DF985C43B777DC028F
:1017D000938707C061B799C5371702401C4F5D8DCD
:1017E00008CF8280B7170240984F1345F5FF798DD7
:1017F00088CF828099C5371702405C4F5D8D48CFF6
:101800008280B7170240D84F1345F5FF798DC8CFB6
:10181000828099C5371702405C475D8D48C782803A
:10182000B7170240D8471345F5FF798DC8C78280A6
:101830001E2137370140130707C0C207C183630663
:10184000E500370700406316E500BA2193F7F7F883
:10185000D98FFA2193F7F7CFC207C183D98F1EA181
:10186000DE215EB59E211EB5B7370140938707C0C4
:101870006314F5009C251EB985475EA982801E2150
:1018800089C593E707081EA18280C207C18393F729
:10189000F7F7C207C183C5BF1E294A25ED8F420550
:1018A000418189C76D8D3335A000828001458280DA
:1018B00093C5F5FFC205C1810EA98280EFE2DF88E2
:1018C0001629F577FD17F58FF621DA252111D58F29
:1018D0001EA95625FD779387379FF58FD6212A8439
:1018E0002EC0D58F9625D58FB625D58F5EA55E29BE
:1018F000C207C18393F7F7CF5D8F5AA94800353DE2
:10190000B74701409387078082456312F406C247B8
:101910005A24139517003E9542070E0541873E95C0
:101920008C41635807048605EFE05F859305400608
:101930002AC0EFE0BF848247931445009305400618
:101940003E85EFE07F865E24C207C18763D507022C
:101950000E059305400613052503EFE03F821D8920
:10196000C98CC204C18006A461016FE08FFEB2473A
:1019700045B78A0555BF1205930540061305250393
:10198000EFE0CFFF3D89E9BF91C55E250967D98F9B
:101990005EA582805A25F977FD17F98FD5BF93F59B
:1019A000F51F4EA182804A211375F51F82805E29A2
:1019B00089C593E787005EA98280C207C183DD9B4A
:1019C000C207C183CDBF0A216D8D3335A00082804F
:1019D000B71702409843B706FFFC1367170098C378
:1019E000D843758FD8C39843B706F7FEFD16758F99
:1019F00098C39843B706FCFFFD16758F98C3D44370
:101A000041777D17F98ED4C3B7069F0094C7B726D8
:101A100002409042719A90C290421366160090C2A2
:101A2000D443D4C3D443758FD8C3D843B706000179
:101A3000D8C39843558F98C3984393166700E3DD46
:101A400006FED843B7160240719BD8C3D84313672C
:101A50002700D8C32147DC42B18BE39EE7FE82809A
:101A6000FD577D576317F500014582806387A70006
:101A7000B1059C41E39CE7FEC5BF05458280EFE2CE
:101A8000AFEC311102C402C602C8FD576313F50062
:101A900001A093D7854093F4F7079377F500139748
:101AA00027008D6793874702BA979C4311813D8930
:101AB0002E843EC0EFF06FD12AC285C4854505450E
:101AC000193B9387F4FF6947636DF7000D678A0739
:101AD000130787FBBA979C43828785450545EFF03E
:101AE000DFB593572440137734008D8B7DC73AC6FA
:101AF00009476380E70E0D47638FE70C054763884E
:101B0000E70CC1473EC8EDA08145C9BF85453705F3
:101B100000100905E9B7854537054010DDBF81454F
:101B2000E5BF854537050080110555BF854537055B
:101B3000208075B7854537052080FDB78145E5BF15
:101B40003705160085451305050451BF8545370542
:101B500016001305050861B78545370516001305FE
:101B6000050CB5BF8145D5BF370518008545130560
:101B70000510B5B73705180085451305052085B74D
:101B80008545370518001305053091BF8145D5BF40
:101B900085452165A9B78145EDBF854537052000FD
:101BA0008DBF8145E5BF854537052000B5BF81451F
:101BB000E5BF85453705200069BF8145E5BF8545FF
:101BC000370530001305054019BF8145D5BFD14702
:101BD00015BFE14705BFF14735B705476383E70206
:101BE00099C789466381D7029307800221BF02C843
:101BF000824712452C007C84EFF03F9651016FE044
:101C00004FD5914701B711840D8893078004E31DD8
:101C1000E4FCCDBDFD577D57631CF50082806398C1
:101C2000A700EFE26FD28C45993D6FE08FD2B105EE
:101C30009C41E396E7FE01A07D579C416394E70039
:101C4000014582806394A700C8418280B105F5B741
:101C5000FD576307F500EFE22FCFF93F6FE06FCF3D
:101C6000014582807D579C416394E7007D558280C9
:101C70006394A70088458280B105F5B7FD576307D7
:101C8000F500EFE26FCCF93F6FE0AFCC7D5582807D
:101C90006305B50019C181E5AA852E85828081453D
:101CA000EDBF01A001A001A001A001A001A001A021
:101CB00001A001A001A001A001A001A001A001A01C
:101CC00001A001A001A001A001A001A001A001A00C
:101CD00001A001A001A001A097F1FF1F938181C283
:101CE000138101F0171500001305054E97E5FF1F3E
:101CF000938545311386818263FAC50083220500EE
:101D000023A0550011059105E3EAC5FE13858182E4
:101D10009385419B6377B500232005001105E36D92
:101D2000B5FE93020008739002308D42739042809A
:101D300097E2FFFF9382022D93E2320073905230BC
:101D40001705000013052575EF000074EF000078FB
:101D5000EFF01FC89702000093826238739012342C
:101D60007300203071158280EFE20FBE1841B73743
:101D70000140938707C02A846318F70005658545ED
:101D800013050580EFF03FA51840B7070040631624
:101D9000F70085450545EFF0FFA56FE08FBBEFE24B
:101DA000AFBA1841B7370140938707C02A84631838
:101DB000F7000565814513050580EFF0DFA11840A8
:101DC000B70700406316F70081450545EFF09FA275
:101DD0006FE02FB8EFE24FB71301C1FDAA84084DA1
:101DE00032C60D662EC4930506EE3ACA36C88D3546
:101DF0002AD0C84C8D66938586EC993D2A848850FC
:101E00008D65938505EBA9352AC0C8508D659385EE
:101E100085E93D3D02570D668D662AC232CC36CE2D
:101E20006304070ED04CFD566304D600630E040C09
:101E30009050FD566305D60082476387070CD0504B
:101E4000FD566305D60092476380070C3A85A2854C
:101E50008135824588C02D3D924588C0153D88C09A
:101E600045C53747014013070780631BE5008545DB
:101E70001165EFF05F96130700022386040298D4E1
:101E8000E247884C938507EE713311C4F247C84C82
:101E9000938587EC41338247814681CB88508D659D
:101EA000938505EB853B93060010924791CBC85074
:101EB0008D6593E60620938585E936C0A13B824671
:101EC000A24703C7C40288409CC4B2471316270028
:101ED000DEA4D247138701883297FEA4C247138637
:101EE000440010C33147C8C09EA8BAA8D6A801E4D0
:101EF0008545EFF0DFABC84093858400EFF01F9C71
:101F0000C8408545EFF05FA8130141026FE06FA460
:101F1000EFE28FA38D6783A7C7F00D67130787F1E3
:101F20008A07BA9780438D65938505EE2285EFF089
:101F30003FD219CD37050020F1659307050701470A
:101F400081460146938505201305050780CF593545
:101F50006FE02FA0EFE24F9F8347C5029305000279
:101F60001397270093870188BA979C438843EFF023
:101F70009FA5133515006FE0CF9DEFE2EF9C8347DF
:101F8000C502930500041397270093870188BA9729
:101F90009C438843EFF03FA3133515006FE06F9B20
:101FA000EFE28F9A411137040020AA842EC2EFF08D
:101FB0006F9F9307040783C7C7022AC4130404074B
:101FC00085E70347C402938701880A07BA979C43B1
:101FD000F1173EC0938701883EC68247D9EB02C203
:101FE000124541016FE0EF968D6783A7C7F00D673B
:101FF000130787F18A07BA979C438D66938506EE8F
:102000003E853EC0EFF0DFC48D6671D92306040221
:10201000138701881C4391EF8347C402850793F718
:10202000F70F2306F402FDD7E5358347C402D1DB61
:102030007DB70245938506EEEFF09FC10346C402CB
:102040001387018893172600BA979C438D669C439B
:10205000E394A7FC3DD6C9BFEFF0CF94A247B307E6
:10206000F5403335F500E39CA5F61307703EE368B1
:10207000F7F6024519376DF19247A6973EC4A2477D
:10208000E380F4F60245D53D75FD8347C40232472F
:1020900085048A07BA979C4383C5F4FF8843EFF011
:1020A0001F90F1BF11E57D5582807D556FE06F8AED
:1020B000EFE28F89AA842E84713D65F983C7C4023B
:1020C0001397270093870188BA979C438843EFF0C2
:1020D0009F8D08A00145D9BF8280EFE2EF86EFE037
:1020E0003FEEEFE04FAAEFE0AFBBF5BF9376850F71
:1020F000AA87ADE61376F50F0D67130787EF0A067B
:102100003A96104213770570C545518F1376F70F35
:1021100063E7C50C0D67130787F10A063A96084274
:1021200013F7F70F8DC293F6070C1306000C130775
:1021300000706393C60293F6F70F1306700C636D7D
:10214000D60013F7F7038D660A07938686EF369756
:1021500018435D8F13770770598D82801377050CB4
:102160001306000C7D55E31AC7FE13F3F70F130790
:10217000700C636D670013F7F7030D66130686EFA7
:102180000A07329710234547E376C7F81307700C08
:102190006360670213F7F7030D66130686EF0A07FD
:1021A000329718431306000C1377070C631FC702FE
:1021B0009305700C7D55E3E265FA13F6F7030D679E
:1021C000130787EF0A063A96104213F70770518FEC
:1021D0001376F70F1377F70363F1C50282809375C7
:1021E000070C1305000C6384A5007D5582809305C0
:1021F000700CE3ECC5FE1377F7030D660A071306B0
:1022000086EF329718438D65938585F10A072E97DF
:10221000084313F7F70F8DC293F6070C9305000CD4
:1022200013070070E39AB6F293F6F70F9305700C5C
:10223000E3E4D5F213F7F7030A07329711BF638778
:10224000C502637DB600918D8547B397B700636E75
:10225000F50005053355B5007D15828001C90505DA
:10226000B305B6403315B500C5BF01458280EFD236
:10227000BFEDAD3DFD57630DF500138441810C406A
:10228000EFE01FE003A681810C40553F6FD07FEC4B
:102290000145EDBF9377F50F45476366F7080D6776
:1022A0008A07130787F13E97184393770570D98FF4
:1022B0007D576389E70CEFD23FE913D427001387DA
:1022C00081911374C4032297184393F4F7005111BA
:1022D00033579700938681912EC0058B36C205CB6C
:1022E0008D653E85938585E03EC4EFF06FF7A2478C
:1022F00009C53E85EFE0FFE3A24712473A94054740
:10230000B3149700184093C4F4FFF98C04C08246BC
:1023100015476368D7060D67130747049395260092
:10232000BA95984102871377050C9306000C631B3E
:10233000D7041307700C6367F7049377F5030D67F1
:10234000130787EF8A07BA979C430D67130787F136
:102350008A07BA979C4313750570C98F91BF914541
:102360003E85EFF0CFF131016FD0BFDE8D45CDBF9F
:10237000E145FDB793058002E5B78145D5B79D4599
:10238000C5B701A08280EFD23FDC9377F50F4547B8
:102390006366F7040D678A07130787F1BA979C43B2
:1023A00013750570B365F50093D74500BD8B0947DC
:1023B00001456369F700370700208A071307070004
:1023C000BA9788438547BD89B395B700C205C181D7
:1023D000EFF00FA63335A0006FD0BFD71377050CF1
:1023E0009306000CFD55E311D7FC1307700CE36D49
:1023F000F7FA9377F5030D67130787EF8A07BA9704
:102400009C430D67130787F18A07BA978C431375AE
:102410000570C98D51BFEFD23FD3EFE07FD96FD0A8
:102420005FD305C1EFD25FD22A84EFE07FD8AA84C0
:10243000EFF09FCAEFE0DFD7058DE36B85FE6FD02D
:102440005FD18280511122C206C42A8411E1054461
:102450002285C52811E5112811E105200295CDBF7F
:10246000A24012443101828001A8938741888843A9
:102470008280511106C41120D1A85111194506C4FA
:10248000E92C0545EF007011AA85814601460145FA
:1024900001A6511197170000938707D322C2171482
:1024A0000000130464D21D8C26C006C40984BE84B7
:1024B00019E41244A240824431016FF0AF807D14D0
:1024C00093172400A6979C438297DDB7511122C22F
:1024D000971700009387C7CE17140000130444CE4B
:1024E0001D8C26C006C40984814463968402EFE0F3
:1024F0009FFD971700009387A7CC171400001304C3
:10250000A4CC1D8C0984814463928402A2401244AD
:10251000824431018280139724003E97184385043A
:102520000297971700009387A7C9C1B71397240094
:102530003E9718438504029797170000938747C872
:10254000E1B79387C181AA85884345A89387C18154
:10255000AA85884309A0CDC183A7C5FF511122C216
:1025600006C426C01384C5FF63D307003E94AA8423
:102570004D2C938781889C4399EB2322040023A44C
:1025800081881244A24026858244310161AC637E79
:10259000F40014403307D4006396E7009843DC430B
:1025A000369718C05CC0E1BFBA87D84319C3E37D32
:1025B000E4FE94433386D700631F86001040B29632
:1025C00094C33386D700E31EC7FA10435843B2962C
:1025D00094C3D8C37DB76375C400B1479CC055B7D9
:1025E0001040B306C4006316D70014435843B29694
:1025F00014C058C0C0C371B78280411126C29384F1
:102600003500F19806C622C4A104B14763F5F4046D
:10261000B14463E4B4042AC0292413878188144395
:102620008247368439E01387C188184301EB3E8521
:1026300081453EC0692823A6A18882473E85A6859C
:102640003EC071207D5782476314E506314798C329
:102650003E85C92A29A0E3DE04FAB1471CC1014521
:10266000B24022449244410182801840058F634E5B
:1026700007022D466376E60018C03A9404C031A0E4
:1026800058406392860223A4E1883E85612A13059F
:10269000B400130744006199B307E540F1D33E94B9
:1026A000098F18C075BFD8C2CDB7A28640409DBF64
:1026B000130435007198E30385FCB305A4403E85FF
:1026C0003EC031207D578247E31AE5FA41B75111E8
:1026D00022C22A842E8523A8019A06C4EFE07FDC5B
:1026E000FD576317F5009387019B9C4391C31CC062
:1026F000A240124431018280FD4763F6B700D947FA
:102700001CC17D5582807C41411122C406C62E86A3
:102710002A8491C713972500BA97984319EB22850D
:1027200032C0B520AA85228522440246B24041012A
:1027300015A8854601456308D700FD566319D700E3
:10274000D9471CC00545B2402244410182802E85F4
:1027500023A0070002970145FDB79387C181AA8591
:10276000884359BF511122C22A842E85B28523A8DD
:10277000019A06C4292DFD576317F5009387019B25
:102780009C4391C31CC0A240124431018280D5AB4E
:10279000938701899C43AA8399EF1387419223A8C9
:1027A000E18817E5FFFF1305E585BA8709C51C41D8
:1027B00023A6F19ABA87D8437D437D556346E30447
:1027C000638D030203A387086300030493122700A9
:1027D0009A9223A0C2000325031005463316E60093
:1027E000518D2320A31023A0D20889466397D300DC
:1027F00083264310558E2322C310930617000A0721
:10280000D4C3BA978CC70145828097D7FFFF9387BF
:10281000677F99C7170500001305E5C76FF0DFC68E
:10282000828082808280130141FD06D422D226D08C
:102830002A87AE8763910620B68432832A8463FE9A
:10284000C50EC166AE826363D626B7060001636714
:10285000D64893558601E144971600009386468634
:10286000AE969422B69493060002858E99CAB397C9
:10287000D700B35497003313D600B3E2F4003314F7
:10288000D70093540301A68516851AC216C0EFD04F
:10289000BF91124382422AC693170301C183A685C2
:1028A00016851AC43EC0EFD07F8DAA852AC2024584
:1028B000EFD0DF8A32479357040192464207D98FFF
:1028C000224363FAA7009A971387F6FF63E4670031
:1028D00063ECA742BA86898FA6853E8536C61AC89C
:1028E0003EC4EFD07F8CA247A6852AC23E85EFD09A
:1028F000FF88AA85AA84024542044180EFD01F8642
:102900009242B246C20233E48200637CA400424396
:102910009387F4FF1A9463656400F9146363A40059
:10292000BE849397060133E597008146B685A25091
:10293000125482541301C102828011EA2EC22AC0AD
:1029400081450545EFD09F83924702472A83C166A0
:102950006365D314B70600016366D3381356830149
:10296000E144970600009386A675B29683C20600DE
:1029700013060002A692330656406312061413177C
:1029800003014183B3876740935403013AC08546EE
:10299000A6853E8536C81AC63EC2EFD0FF80924754
:1029A0002AC4A6853E85EFD06FFD82452AC2EFD0AE
:1029B000EFFA22479357040132434207D98FC246A8
:1029C00063FBA70012469A971307F6FF63E46700BC
:1029D00063EFA7323AC2898FA6853E8536C81ACAE8
:1029E0003EC6EFD06FFCB247A6852AC43E85EFD025
:1029F000EFF88245AA844204EFD04FF6A24241800C
:102A0000C246C20233E48200637CA400524393872F
:102A1000F4FF1A9463656400F9146363A400BE8430
:102A20009247C20733E59700B685A25012548254EC
:102A30001301C102828063E1D504C16563E7B60476
:102A4000B705000163E8B62893D5860161431705F1
:102A500000001305E5662E950C219A9513030002DC
:102A60003303B340631D031063E2F628B337C70096
:102A700013C51700814619A081460145B685A250AD
:102A8000125482541301C10282809305F00F63F245
:102A9000D52693D5860021435DBF9306F00F1A8695
:102AA000E3F166EC13568300A14465BD9306F00F75
:102AB000B285E3F3C6DA93558600A14471BB3313A4
:102AC000C300B3D6570093540301B397C700B35262
:102AD00057003314C70013170301B3E7F200418313
:102AE000A68536853EC21AC83AC036C4EFD0CFEBB1
:102AF000A2462AC6A6853685EFD04FE8AA852AC405
:102B00000245EFD0AFE532469247A2464206C18366
:102B1000D18F424363FBA7009A971387F6FF63E3C5
:102B2000671E63F1A71EF9169A973387A740A685FB
:102B30003A8536CA1AC83AC4EFD00FE722472AC6E8
:102B4000A6853A85EFD08FE3AA852AC40245EFD047
:102B5000EFE0B24730822247C207D18F4243D246CC
:102B600063FBA7009A971306F7FF63E9671863F7FB
:102B7000A71879179A97C206898FD98E11BD335538
:102B8000B600B3966600C98EB353B7003ACC33177C
:102B9000660013D40601B3D4B7003AC4B3976700F4
:102BA00013970601B3E7F3004183A28526853EC053
:102BB0001ACA36C83AC2EFD02FDF2AC6A2852685A8
:102BC000EFD0CFDBAA85AA841245EFD02FD9B2432C
:102BD0008247C246C20313D6070133E6C3005243FD
:102BE0006247637BA60036969385F4FF636AD6102E
:102BF0006378A610F9143696098EA28532853ACCF0
:102C00001ACA36CE32C8EFD02FDA4246A2852AC67B
:102C10003285EFD0AFD6AA852A841245EFD00FD4E3
:102C2000B24230805243C20233E6C2006247637C44
:102C3000A600F2469305F4FF3696636FD60A637DCD
:102C4000A60A79143696C1669382F6FFA246939738
:102C50000401C18F33F45700098EB3F2560032C21B
:102C600093D3070193D4060122859685EFD00FCF29
:102C70002AC0A6852285EFD06FCE2A8496851E8530
:102C8000EFD0CFCDAA82A6851E85EFD02FCD82466C
:102C90001694C182369463745400C1663695935677
:102CA00004013695924663E3A6026385A6003E853D
:102CB0008146E9B3416682457D16B376C400C206FB
:102CC0006D8E33176700B296E373D7FE1385F7FF57
:102CD00081466DB393D50601414395BB93550601DB
:102CE000C1449DBE13560301C144A5B981460545A3
:102CF00071B3B6850143A1BB2E84B1B73287A5BDA0
:102D0000AE84DDBDBA8615B5F9169A97E9B61307F4
:102D1000E6FF3AC29A97C1B121112AC236C006CA4B
:102D2000AA8622C826C6328732C48147014501439C
:102D300033866600937317003304F50093D2F601CF
:102D40000583B334660086076385030033858400FA
:102D500032838606B3E7570061FFAA8789C52245FB
:102D6000EFD0CFBFAA97024711C71245BA85EFD05F
:102D7000EFBEAA97D2404244B2441A85BE85610193
:102D800082809307800523A8F19A7D55828093075E
:102D9000800523A8F19A7D55828001A002000000E1
:102DA0000024014000000000010000000024014058
:102DB0000080000014000000002401400000010019
:102DC00022000000002401400080010023000000D8
:102DD0000024014000000200250000000024014002
:102DE00000800200260000000024014000000300D3
:102DF000240000000024014000800300FFFFFFFFCB
:102E0000000000000000000024000000000000405E
:102E10000B91000023000000000000400B11010096
:102E200010000000000000400B910100270000008E
:102E3000000000400B11020022000000002C0140A5
:102E40000B8D000001000000002C01400B0D010063
:102E500013000000002C01400B8D01001400000045
:102E6000002C01400B0D020020000000002C01404E
:102E70000B8D000002000000002C01400B0D010032
:102E800021000000002C01400B8D0100FFFFFFFF1F
:102E90000000000000000000230000000038014096
:102EA00018000000FFFFFFFF00000000000000000E
:102EB00012000000003801400B000000FFFFFFFF80
:102EC0000000000000000000260000000038014063
:102ED00018000000FFFFFFFF0000000000000000DE
:102EE00025000000003801400B000000FFFFFFFF3D
:102EF00000000000000000000100000000000000D1
:102F0000060000000C0000000D0000000F00000093
:102F1000100000000E000000010000000200000090
:102F2000100000001100000012000000130000005B
:102F3000140000001500000016000000170000003B
:102F400020000000210000002200000023000000FB
:102F500024000000250000002600000027000000DB
:102F60000000000000000000960A0000CE0A0000E9
:102F70008C0A0000900A0000920A0000B00A0000CB
:102F8000920A0000A20E0000D20E0000000102030F
:102F90000405060708090000010000000200000007
:102FA00004000000080000001000000020000000E5
:102FB0004000000080000000DA1A0000081B00003A
:102FC0000C1B0000161B00001E1B0000221B000033
:102FD0002C1B0000341B00003C1B0000401B0000A9
:102FE0004C1B0000581B0000641B0000681B000005
:102FF000741B0000801B00008C1B0000901B000055
:10300000961B00009A1B0000A21B0000A61B0000DC
:10301000AE1B0000B21B0000BA1B0000BE1B00006C
:10302000CA1B0000010000000200000004000000B4
:103030000800000010000000200000004000000018
:10304000800000005E2300006C230000702300005D
:10305000742300007A2300007E230000000000009B
:103060000000000000000000000000000000000060
:103070000000000000000000000000000000000050
:103080000000000000000000000000000000000040
:103090000000000000000000000000000000000030
:1030A0000000000000000000000000000000000020
:1030B000000000000000000000000000000102020B
:1030C00003030303040404040404040405050505C0
:1030D000050505050505050505050505060606069C
:1030E0000606060606060606060606060606060680
:1030F000060606060606060606060606070707076C
:10310000070707070707070707070707070707074F
:10311000070707070707070707070707070707073F
:10312000070707070707070707070707070707072F
:10313000070707070707070707070707080808081B
:1031400008080808080808080808080808080808FF
:1031500008080808080808080808080808080808EF
:1031600008080808080808080808080808080808DF
:1031700008080808080808080808080808080808CF
:1031800008080808080808080808080808080808BF
:1031900008080808080808080808080808080808AF
:1031A000080808080808080808080808080808089F
:0C31B000080808080808080808080808B3
:0831BC000A280000CC0B000002
:1031C40000080140001001400014014014000000F8
:1031D40000000000140000000000000014000000C3
:1031E40000000000140000000000000014000000B3
:1031F40000000000140000000000000014000000A3
:103204000000000014000000000000000204060892
:1032140004080C1008101820102030402040608052
:103224000102030405060708010203040506070852
:10323400000000000000000000000000000000008A
:103244000000000000000000FFFFFFFFFFFFFFFF82
:10325400FFFFFFFFFFFFFFFF000000000100000071
:10326400000000007C3000009C3000005C30000056
:10327400000000000000000000000000000000004A
:10328400000000000000000000000000000000003A
:10329400000000000000000000000000000000002A
:1032A400000000000000000000000000000000001A
:1032B400000000000000000000000000000000000A
:1032C40001FF010101000000FFFFFFFFB402002025
:1032D400006CDC020A0000000A000000A0000020CC
:0832E400888EE8EE0019324B60
:00000001FF
